{
  "abi": [
    {
      "inputs": [
        {
          "internalType": "address",
          "name": "_verifier",
          "type": "address"
        }
      ],
      "stateMutability": "nonpayable",
      "type": "constructor"
    },
    {
      "inputs": [
        {
          "internalType": "uint256[2]",
          "name": "a",
          "type": "uint256[2]"
        },
        {
          "internalType": "uint256[2][2]",
          "name": "b",
          "type": "uint256[2][2]"
        },
        {
          "internalType": "uint256[2]",
          "name": "c",
          "type": "uint256[2]"
        },
        {
          "internalType": "uint256[8]",
          "name": "input",
          "type": "uint256[8]"
        }
      ],
      "name": "agentAskProof",
      "outputs": [],
      "stateMutability": "nonpayable",
      "type": "function"
    },
    {
      "inputs": [
        {
          "internalType": "uint256",
          "name": "",
          "type": "uint256"
        },
        {
          "internalType": "uint256",
          "name": "",
          "type": "uint256"
        }
      ],
      "name": "agents",
      "outputs": [
        {
          "internalType": "address",
          "name": "",
          "type": "address"
        }
      ],
      "stateMutability": "view",
      "type": "function"
    },
    {
      "inputs": [
        {
          "internalType": "uint256",
          "name": "gameId",
          "type": "uint256"
        }
      ],
      "name": "endGame",
      "outputs": [],
      "stateMutability": "nonpayable",
      "type": "function"
    },
    {
      "inputs": [
        {
          "internalType": "uint256",
          "name": "",
          "type": "uint256"
        }
      ],
      "name": "movesHashes",
      "outputs": [
        {
          "internalType": "uint256",
          "name": "",
          "type": "uint256"
        }
      ],
      "stateMutability": "view",
      "type": "function"
    },
    {
      "inputs": [
        {
          "internalType": "uint256",
          "name": "gameId",
          "type": "uint256"
        },
        {
          "internalType": "address[]",
          "name": "_agents",
          "type": "address[]"
        },
        {
          "internalType": "uint256",
          "name": "movesHash",
          "type": "uint256"
        }
      ],
      "name": "startGame",
      "outputs": [],
      "stateMutability": "nonpayable",
      "type": "function"
    },
    {
      "inputs": [],
      "name": "verifier",
      "outputs": [
        {
          "internalType": "contract IVerifier",
          "name": "",
          "type": "address"
        }
      ],
      "stateMutability": "view",
      "type": "function"
    }
  ],
  "bytecode": {
    "object": "0x608060405234801561001057600080fd5b506040516107b63803806107b683398101604081905261002f91610054565b600080546001600160a01b0319166001600160a01b0392909216919091179055610084565b60006020828403121561006657600080fd5b81516001600160a01b038116811461007d57600080fd5b9392505050565b610723806100936000396000f3fe608060405234801561001057600080fd5b50600436106100625760003560e01c806322fe0ea3146100675780632b7ac3f31461009a57806369dbbc28146100c55780636fee2fe4146100da5780638306b550146100ed578063d0399bb814610100575b600080fd5b6100876100753660046103a9565b60016020526000908152604090205481565b6040519081526020015b60405180910390f35b6000546100ad906001600160a01b031681565b6040516001600160a01b039091168152602001610091565b6100d86100d33660046103c2565b610113565b005b6100ad6100e8366004610447565b6101fa565b6100d86100fb36600461051c565b610232565b6100d861010e3660046103a9565b6102f0565b6000848152600160205260409020541561016b5760405162461bcd60e51b815260206004820152601460248201527311d85b5948185b1c9958591e481cdd185c9d195960621b60448201526064015b60405180910390fd5b600084815260016020526040902081905581801580159061018d575060048111155b6101d95760405162461bcd60e51b815260206004820152601860248201527f496e76616c6964206e756d626572206f66206167656e747300000000000000006044820152606401610162565b60008581526002602052604090206101f2908585610317565b505050505050565b6002602052816000526040600020818154811061021657600080fd5b6000918252602090912001546001600160a01b03169150829050565b600054604051636490cd3d60e11b81526001600160a01b039091169063c9219a7a9061026890879087908790879060040161061d565b602060405180830381865afa158015610285573d6000803e3d6000fd5b505050506040513d601f19601f820116820180604052508101906102a991906106c4565b6102ea5760405162461bcd60e51b81526020600482015260126024820152713b32b934b334b1b0ba34b7b71032b93937b960711b6044820152606401610162565b50505050565b6000818152600160209081526040808320839055600290915281206103149161037a565b50565b82805482825590600052602060002090810192821561036a579160200282015b8281111561036a5781546001600160a01b0319166001600160a01b03843516178255602090920191600190910190610337565b50610376929150610394565b5090565b508054600082559060005260206000209081019061031491905b5b808211156103765760008155600101610395565b6000602082840312156103bb57600080fd5b5035919050565b600080600080606085870312156103d857600080fd5b84359350602085013567ffffffffffffffff808211156103f757600080fd5b818701915087601f83011261040b57600080fd5b81358181111561041a57600080fd5b8860208260051b850101111561042f57600080fd5b95986020929092019750949560400135945092505050565b6000806040838503121561045a57600080fd5b50508035926020909101359150565b634e487b7160e01b600052604160045260246000fd5b6040805190810167ffffffffffffffff811182821017156104a2576104a2610469565b60405290565b604051610100810167ffffffffffffffff811182821017156104a2576104a2610469565b600082601f8301126104dd57600080fd5b6104e561047f565b8060408401858111156104f757600080fd5b845b818110156105115780358452602093840193016104f9565b509095945050505050565b60008060008061020080868803121561053457600080fd5b61053e87876104cc565b9450604087605f88011261055157600080fd5b61055961047f565b8060c089018a81111561056b57600080fd5b838a015b81811015610590576105818c826104cc565b8452602090930192840161056f565b5081975061059e8b826104cc565b9650505050508661011f8701126105b457600080fd5b6105bc6104a8565b9086019080888311156105ce57600080fd5b61010088015b838110156105ec5780358352602092830192016105d4565b509598949750929550505050565b8060005b60028110156102ea5781518452602093840193909101906001016105fe565b610200810161062c82876105fa565b60408083018660005b6002808210610644575061067f565b82518460005b8381101561066857825182526020928301929091019060010161064a565b505050928401925060209190910190600101610635565b5050505061069060c08301856105fa565b61010082018360005b60088110156106b8578151835260209283019290910190600101610699565b50505095945050505050565b6000602082840312156106d657600080fd5b815180151581146106e657600080fd5b939250505056fea2646970667358221220dc2eb0e15f947e0fb2084d293824b056ce02ee0ab13543ffb8a7b3424531cc5b64736f6c634300080e0033",
    "linkReferences": {}
  },
  "methodIdentifiers": {
    "agentAskProof(uint256[2],uint256[2][2],uint256[2],uint256[8])": "8306b550",
    "agents(uint256,uint256)": "6fee2fe4",
    "endGame(uint256)": "d0399bb8",
    "movesHashes(uint256)": "22fe0ea3",
    "startGame(uint256,address[],uint256)": "69dbbc28",
    "verifier()": "2b7ac3f3"
  },
  "id": 1
}