{
  "abi": [
    {
      "inputs": [
        {
          "internalType": "address",
          "name": "_verifier",
          "type": "address"
        }
      ],
      "stateMutability": "nonpayable",
      "type": "constructor"
    },
    {
      "inputs": [
        {
          "internalType": "uint256[2]",
          "name": "a",
          "type": "uint256[2]"
        },
        {
          "internalType": "uint256[2][2]",
          "name": "b",
          "type": "uint256[2][2]"
        },
        {
          "internalType": "uint256[2]",
          "name": "c",
          "type": "uint256[2]"
        },
        {
          "internalType": "uint256[8]",
          "name": "input",
          "type": "uint256[8]"
        }
      ],
      "name": "agentAskProof",
      "outputs": [],
      "stateMutability": "nonpayable",
      "type": "function"
    },
    {
      "inputs": [
        {
          "internalType": "uint256",
          "name": "",
          "type": "uint256"
        },
        {
          "internalType": "uint256",
          "name": "",
          "type": "uint256"
        }
      ],
      "name": "agents",
      "outputs": [
        {
          "internalType": "address",
          "name": "",
          "type": "address"
        }
      ],
      "stateMutability": "view",
      "type": "function"
    },
    {
      "inputs": [
        {
          "internalType": "uint256",
          "name": "gameId",
          "type": "uint256"
        }
      ],
      "name": "endGame",
      "outputs": [],
      "stateMutability": "nonpayable",
      "type": "function"
    },
    {
      "inputs": [
        {
          "internalType": "enum Game.Features",
          "name": "",
          "type": "uint8"
        },
        {
          "internalType": "uint256",
          "name": "",
          "type": "uint256"
        }
      ],
      "name": "features",
      "outputs": [
        {
          "internalType": "uint8",
          "name": "x",
          "type": "uint8"
        },
        {
          "internalType": "uint8",
          "name": "y",
          "type": "uint8"
        }
      ],
      "stateMutability": "view",
      "type": "function"
    },
    {
      "inputs": [
        {
          "internalType": "uint256",
          "name": "",
          "type": "uint256"
        }
      ],
      "name": "movesHashes",
      "outputs": [
        {
          "internalType": "uint256",
          "name": "",
          "type": "uint256"
        }
      ],
      "stateMutability": "view",
      "type": "function"
    },
    {
      "inputs": [
        {
          "internalType": "uint256",
          "name": "gameId",
          "type": "uint256"
        },
        {
          "internalType": "address[]",
          "name": "_agents",
          "type": "address[]"
        },
        {
          "internalType": "uint256",
          "name": "movesHash",
          "type": "uint256"
        }
      ],
      "name": "startGame",
      "outputs": [],
      "stateMutability": "nonpayable",
      "type": "function"
    },
    {
      "inputs": [],
      "name": "verifier",
      "outputs": [
        {
          "internalType": "contract IVerifier",
          "name": "",
          "type": "address"
        }
      ],
      "stateMutability": "view",
      "type": "function"
    }
  ],
  "bytecode": {
    "object": "0x60806040523480156200001157600080fd5b5060405162000c1c38038062000c1c8339810160408190526200003491620003aa565b600080546001600160a01b0319166001600160a01b0383161781556040805160a08082018352838252600160208084018290526003848601819052600460608087018290526005608080890182905289519788018a528a8852948701529685015294830191909152810192909252620000ae9291620002b6565b6040805160a08082018352600180835260046020808501829052848601919091526000606080860182905260056080808801829052885196870189529286529285018490526003968501969096529483015260069382019390935262000116929190620002b6565b6040805160a0808201835260028083526003602080850182905260018587015260608086018390526000608080880182905288519687018952908652918501849052958401919091526005948301949094526006938201939093526200017e929190620002b6565b6040805160a0808201835260038083526001602080850182905284860183905260608086018390526002608080880191909152875195860188526000865291850192909252948301829052600490830152600693820193909352620001e5929190620002b6565b6040805160a08082018352600480835260026020808501829052600585870181905260006060808801829052608080890187905289519788018a5291875292860184905296850192909252600390840152938201939093526200024a929190620002b6565b6040805160a080820183526005808352600060208085018290526003858701526004606080870191909152600160808088018290528851968701895293865291850182905295840152938201819052600693820193909352620002af929190620002b6565b5062000436565b60005b60058160ff161015620003a45760006040518060400160405280858460ff1660058110620002eb57620002eb620003dc565b602002015160ff168152602001848460ff1660058110620003105762000310620003dc565b602002015160ff169052905060036000866007811115620003355762000335620003f2565b6007811115620003495762000349620003f2565b81526020808201929092526040016000908120805460018101825590825290829020835191018054939092015160ff9081166101000261ffff19909416911617919091179055806200039b8162000408565b915050620002b9565b50505050565b600060208284031215620003bd57600080fd5b81516001600160a01b0381168114620003d557600080fd5b9392505050565b634e487b7160e01b600052603260045260246000fd5b634e487b7160e01b600052602160045260246000fd5b600060ff821660ff81036200042d57634e487b7160e01b600052601160045260246000fd5b60010192915050565b6107d680620004466000396000f3fe608060405234801561001057600080fd5b506004361061007d5760003560e01c80636fee2fe41161005b5780636fee2fe4146100f55780638303dde9146101085780638306b55014610135578063d0399bb81461014857600080fd5b806322fe0ea3146100825780632b7ac3f3146100b557806369dbbc28146100e0575b600080fd5b6100a261009036600461042c565b60016020526000908152604090205481565b6040519081526020015b60405180910390f35b6000546100c8906001600160a01b031681565b6040516001600160a01b0390911681526020016100ac565b6100f36100ee366004610445565b61015b565b005b6100c86101033660046104ca565b610242565b61011b6101163660046104ec565b61027a565b6040805160ff9384168152929091166020830152016100ac565b6100f36101433660046105cf565b6102b5565b6100f361015636600461042c565b610373565b600084815260016020526040902054156101b35760405162461bcd60e51b815260206004820152601460248201527311d85b5948185b1c9958591e481cdd185c9d195960621b60448201526064015b60405180910390fd5b60008481526001602052604090208190558180158015906101d5575060048111155b6102215760405162461bcd60e51b815260206004820152601860248201527f496e76616c6964206e756d626572206f66206167656e7473000000000000000060448201526064016101aa565b600085815260026020526040902061023a90858561039a565b505050505050565b6002602052816000526040600020818154811061025e57600080fd5b6000918252602090912001546001600160a01b03169150829050565b6003602052816000526040600020818154811061029657600080fd5b60009182526020909120015460ff808216935061010090910416905082565b600054604051636490cd3d60e11b81526001600160a01b039091169063c9219a7a906102eb9087908790879087906004016106d0565b602060405180830381865afa158015610308573d6000803e3d6000fd5b505050506040513d601f19601f8201168201806040525081019061032c9190610777565b61036d5760405162461bcd60e51b81526020600482015260126024820152713b32b934b334b1b0ba34b7b71032b93937b960711b60448201526064016101aa565b50505050565b600081815260016020908152604080832083905560029091528120610397916103fd565b50565b8280548282559060005260206000209081019282156103ed579160200282015b828111156103ed5781546001600160a01b0319166001600160a01b038435161782556020909201916001909101906103ba565b506103f9929150610417565b5090565b508054600082559060005260206000209081019061039791905b5b808211156103f95760008155600101610418565b60006020828403121561043e57600080fd5b5035919050565b6000806000806060858703121561045b57600080fd5b84359350602085013567ffffffffffffffff8082111561047a57600080fd5b818701915087601f83011261048e57600080fd5b81358181111561049d57600080fd5b8860208260051b85010111156104b257600080fd5b95986020929092019750949560400135945092505050565b600080604083850312156104dd57600080fd5b50508035926020909101359150565b600080604083850312156104ff57600080fd5b82356008811061050e57600080fd5b946020939093013593505050565b634e487b7160e01b600052604160045260246000fd5b6040805190810167ffffffffffffffff811182821017156105555761055561051c565b60405290565b604051610100810167ffffffffffffffff811182821017156105555761055561051c565b600082601f83011261059057600080fd5b610598610532565b8060408401858111156105aa57600080fd5b845b818110156105c45780358452602093840193016105ac565b509095945050505050565b6000806000806102008086880312156105e757600080fd5b6105f1878761057f565b9450604087605f88011261060457600080fd5b61060c610532565b8060c089018a81111561061e57600080fd5b838a015b81811015610643576106348c8261057f565b84526020909301928401610622565b508197506106518b8261057f565b9650505050508661011f87011261066757600080fd5b61066f61055b565b90860190808883111561068157600080fd5b61010088015b8381101561069f578035835260209283019201610687565b509598949750929550505050565b8060005b600281101561036d5781518452602093840193909101906001016106b1565b61020081016106df82876106ad565b60408083018660005b60028082106106f75750610732565b82518460005b8381101561071b5782518252602092830192909101906001016106fd565b5050509284019250602091909101906001016106e8565b5050505061074360c08301856106ad565b61010082018360005b600881101561076b57815183526020928301929091019060010161074c565b50505095945050505050565b60006020828403121561078957600080fd5b8151801515811461079957600080fd5b939250505056fea26469706673582212209175207e13a43b65ebb49c2d3c419e9ca00c42a36ff504779359bc1b346692f564736f6c634300080e0033",
    "linkReferences": {}
  },
  "methodIdentifiers": {
    "agentAskProof(uint256[2],uint256[2][2],uint256[2],uint256[8])": "8306b550",
    "agents(uint256,uint256)": "6fee2fe4",
    "endGame(uint256)": "d0399bb8",
    "features(uint8,uint256)": "8303dde9",
    "movesHashes(uint256)": "22fe0ea3",
    "startGame(uint256,address[],uint256)": "69dbbc28",
    "verifier()": "2b7ac3f3"
  },
  "id": 1
}