{
  "abi": [
    {
      "inputs": [
        {
          "internalType": "address",
          "name": "_agentAskVerifier",
          "type": "address"
        },
        {
          "internalType": "address",
          "name": "_firstMoveVerifier",
          "type": "address"
        },
        {
          "internalType": "address",
          "name": "_recruiterMoveVerifier",
          "type": "address"
        },
        {
          "internalType": "address",
          "name": "_agentAskNoMatchVerifier",
          "type": "address"
        },
        {
          "internalType": "address",
          "name": "_agentCaptureVerifier",
          "type": "address"
        },
        {
          "internalType": "address",
          "name": "_agentRevealVerifier",
          "type": "address"
        }
      ],
      "stateMutability": "nonpayable",
      "type": "constructor"
    },
    {
      "anonymous": false,
      "inputs": [
        {
          "indexed": true,
          "internalType": "address",
          "name": "agent",
          "type": "address"
        },
        {
          "indexed": false,
          "internalType": "enum Game.Feature",
          "name": "feature",
          "type": "uint8"
        }
      ],
      "name": "AgentAsked",
      "type": "event"
    },
    {
      "anonymous": false,
      "inputs": [
        {
          "indexed": true,
          "internalType": "address",
          "name": "agent",
          "type": "address"
        },
        {
          "components": [
            {
              "internalType": "uint8",
              "name": "x",
              "type": "uint8"
            },
            {
              "internalType": "uint8",
              "name": "y",
              "type": "uint8"
            }
          ],
          "indexed": false,
          "internalType": "struct Game.Position",
          "name": "pos",
          "type": "tuple"
        }
      ],
      "name": "AgentCaptured",
      "type": "event"
    },
    {
      "anonymous": false,
      "inputs": [
        {
          "indexed": true,
          "internalType": "address",
          "name": "agent",
          "type": "address"
        },
        {
          "components": [
            {
              "internalType": "uint8",
              "name": "x",
              "type": "uint8"
            },
            {
              "internalType": "uint8",
              "name": "y",
              "type": "uint8"
            }
          ],
          "indexed": false,
          "internalType": "struct Game.Position",
          "name": "to",
          "type": "tuple"
        }
      ],
      "name": "AgentMoved",
      "type": "event"
    },
    {
      "anonymous": false,
      "inputs": [
        {
          "indexed": true,
          "internalType": "address",
          "name": "agent",
          "type": "address"
        },
        {
          "components": [
            {
              "internalType": "uint8",
              "name": "x",
              "type": "uint8"
            },
            {
              "internalType": "uint8",
              "name": "y",
              "type": "uint8"
            }
          ],
          "indexed": false,
          "internalType": "struct Game.Position",
          "name": "pos",
          "type": "tuple"
        }
      ],
      "name": "AgentRevealed",
      "type": "event"
    },
    {
      "anonymous": false,
      "inputs": [],
      "name": "AskAnswered",
      "type": "event"
    },
    {
      "anonymous": false,
      "inputs": [],
      "name": "CaptureAnswered",
      "type": "event"
    },
    {
      "anonymous": false,
      "inputs": [],
      "name": "RecruiterMoved",
      "type": "event"
    },
    {
      "anonymous": false,
      "inputs": [],
      "name": "RevealAnswered",
      "type": "event"
    },
    {
      "inputs": [
        {
          "internalType": "uint256",
          "name": "gameId",
          "type": "uint256"
        },
        {
          "internalType": "address",
          "name": "agent",
          "type": "address"
        }
      ],
      "name": "addAgent",
      "outputs": [],
      "stateMutability": "nonpayable",
      "type": "function"
    },
    {
      "inputs": [],
      "name": "agentAskNoMatchVerifier",
      "outputs": [
        {
          "internalType": "contract AgentAskNoMatchVerifier",
          "name": "",
          "type": "address"
        }
      ],
      "stateMutability": "view",
      "type": "function"
    },
    {
      "inputs": [
        {
          "internalType": "uint256",
          "name": "gameId",
          "type": "uint256"
        },
        {
          "internalType": "uint256[2]",
          "name": "position",
          "type": "uint256[2]"
        }
      ],
      "name": "agentAskNotify",
      "outputs": [],
      "stateMutability": "nonpayable",
      "type": "function"
    },
    {
      "inputs": [
        {
          "internalType": "uint256",
          "name": "gameId",
          "type": "uint256"
        },
        {
          "internalType": "uint256[2]",
          "name": "a",
          "type": "uint256[2]"
        },
        {
          "internalType": "uint256[2][2]",
          "name": "b",
          "type": "uint256[2][2]"
        },
        {
          "internalType": "uint256[2]",
          "name": "c",
          "type": "uint256[2]"
        },
        {
          "internalType": "uint256[25]",
          "name": "input",
          "type": "uint256[25]"
        }
      ],
      "name": "agentAskRevealNoPosition",
      "outputs": [],
      "stateMutability": "nonpayable",
      "type": "function"
    },
    {
      "inputs": [
        {
          "internalType": "uint256",
          "name": "gameId",
          "type": "uint256"
        },
        {
          "internalType": "uint256[2]",
          "name": "a",
          "type": "uint256[2]"
        },
        {
          "internalType": "uint256[2][2]",
          "name": "b",
          "type": "uint256[2][2]"
        },
        {
          "internalType": "uint256[2]",
          "name": "c",
          "type": "uint256[2]"
        },
        {
          "internalType": "uint256[27]",
          "name": "input",
          "type": "uint256[27]"
        }
      ],
      "name": "agentAskRevealPosition",
      "outputs": [],
      "stateMutability": "nonpayable",
      "type": "function"
    },
    {
      "inputs": [],
      "name": "agentAskVerifier",
      "outputs": [
        {
          "internalType": "contract AgentAskVerifier",
          "name": "",
          "type": "address"
        }
      ],
      "stateMutability": "view",
      "type": "function"
    },
    {
      "inputs": [
        {
          "internalType": "uint256",
          "name": "gameId",
          "type": "uint256"
        },
        {
          "internalType": "uint256[2]",
          "name": "a",
          "type": "uint256[2]"
        },
        {
          "internalType": "uint256[2][2]",
          "name": "b",
          "type": "uint256[2][2]"
        },
        {
          "internalType": "uint256[2]",
          "name": "c",
          "type": "uint256[2]"
        },
        {
          "internalType": "uint256[4]",
          "name": "input",
          "type": "uint256[4]"
        }
      ],
      "name": "agentCapture",
      "outputs": [],
      "stateMutability": "nonpayable",
      "type": "function"
    },
    {
      "inputs": [
        {
          "internalType": "uint256",
          "name": "gameId",
          "type": "uint256"
        },
        {
          "internalType": "uint256[2]",
          "name": "position",
          "type": "uint256[2]"
        }
      ],
      "name": "agentCaptureNotify",
      "outputs": [],
      "stateMutability": "nonpayable",
      "type": "function"
    },
    {
      "inputs": [],
      "name": "agentCaptureVerifier",
      "outputs": [
        {
          "internalType": "contract AgentCaptureVerifier",
          "name": "",
          "type": "address"
        }
      ],
      "stateMutability": "view",
      "type": "function"
    },
    {
      "inputs": [
        {
          "internalType": "uint256",
          "name": "gameId",
          "type": "uint256"
        },
        {
          "internalType": "uint8",
          "name": "x",
          "type": "uint8"
        },
        {
          "internalType": "uint8",
          "name": "y",
          "type": "uint8"
        }
      ],
      "name": "agentMove",
      "outputs": [],
      "stateMutability": "nonpayable",
      "type": "function"
    },
    {
      "inputs": [
        {
          "internalType": "uint256",
          "name": "",
          "type": "uint256"
        },
        {
          "internalType": "address",
          "name": "",
          "type": "address"
        }
      ],
      "name": "agentPositions",
      "outputs": [
        {
          "internalType": "uint8",
          "name": "x",
          "type": "uint8"
        },
        {
          "internalType": "uint8",
          "name": "y",
          "type": "uint8"
        }
      ],
      "stateMutability": "view",
      "type": "function"
    },
    {
      "inputs": [
        {
          "internalType": "uint256",
          "name": "gameId",
          "type": "uint256"
        },
        {
          "internalType": "uint256[2]",
          "name": "a",
          "type": "uint256[2]"
        },
        {
          "internalType": "uint256[2][2]",
          "name": "b",
          "type": "uint256[2][2]"
        },
        {
          "internalType": "uint256[2]",
          "name": "c",
          "type": "uint256[2]"
        },
        {
          "internalType": "uint256[4]",
          "name": "input",
          "type": "uint256[4]"
        }
      ],
      "name": "agentReveal",
      "outputs": [],
      "stateMutability": "nonpayable",
      "type": "function"
    },
    {
      "inputs": [
        {
          "internalType": "uint256",
          "name": "gameId",
          "type": "uint256"
        },
        {
          "internalType": "uint256[2]",
          "name": "position",
          "type": "uint256[2]"
        }
      ],
      "name": "agentRevealNotify",
      "outputs": [],
      "stateMutability": "nonpayable",
      "type": "function"
    },
    {
      "inputs": [],
      "name": "agentRevealVerifier",
      "outputs": [
        {
          "internalType": "contract AgentRevealVerifier",
          "name": "",
          "type": "address"
        }
      ],
      "stateMutability": "view",
      "type": "function"
    },
    {
      "inputs": [
        {
          "internalType": "uint256",
          "name": "",
          "type": "uint256"
        },
        {
          "internalType": "uint256",
          "name": "",
          "type": "uint256"
        }
      ],
      "name": "agents",
      "outputs": [
        {
          "internalType": "address",
          "name": "",
          "type": "address"
        }
      ],
      "stateMutability": "view",
      "type": "function"
    },
    {
      "inputs": [
        {
          "internalType": "uint256",
          "name": "gameId",
          "type": "uint256"
        }
      ],
      "name": "agentsNeeded",
      "outputs": [
        {
          "internalType": "bool",
          "name": "",
          "type": "bool"
        }
      ],
      "stateMutability": "view",
      "type": "function"
    },
    {
      "inputs": [
        {
          "internalType": "uint256",
          "name": "",
          "type": "uint256"
        }
      ],
      "name": "currentAgentAsk",
      "outputs": [
        {
          "internalType": "enum Game.Feature",
          "name": "",
          "type": "uint8"
        }
      ],
      "stateMutability": "view",
      "type": "function"
    },
    {
      "inputs": [
        {
          "internalType": "uint256",
          "name": "",
          "type": "uint256"
        }
      ],
      "name": "currentAgentCapture",
      "outputs": [
        {
          "internalType": "uint8",
          "name": "x",
          "type": "uint8"
        },
        {
          "internalType": "uint8",
          "name": "y",
          "type": "uint8"
        }
      ],
      "stateMutability": "view",
      "type": "function"
    },
    {
      "inputs": [
        {
          "internalType": "uint256",
          "name": "",
          "type": "uint256"
        }
      ],
      "name": "currentAgentReveal",
      "outputs": [
        {
          "internalType": "uint8",
          "name": "x",
          "type": "uint8"
        },
        {
          "internalType": "uint8",
          "name": "y",
          "type": "uint8"
        }
      ],
      "stateMutability": "view",
      "type": "function"
    },
    {
      "inputs": [
        {
          "internalType": "uint256",
          "name": "gameId",
          "type": "uint256"
        }
      ],
      "name": "endGame",
      "outputs": [],
      "stateMutability": "nonpayable",
      "type": "function"
    },
    {
      "inputs": [
        {
          "internalType": "enum Game.Feature",
          "name": "",
          "type": "uint8"
        },
        {
          "internalType": "uint256",
          "name": "",
          "type": "uint256"
        }
      ],
      "name": "features",
      "outputs": [
        {
          "internalType": "uint8",
          "name": "x",
          "type": "uint8"
        },
        {
          "internalType": "uint8",
          "name": "y",
          "type": "uint8"
        }
      ],
      "stateMutability": "view",
      "type": "function"
    },
    {
      "inputs": [],
      "name": "firstMoveVerifier",
      "outputs": [
        {
          "internalType": "contract StartingMoveVerifier",
          "name": "",
          "type": "address"
        }
      ],
      "stateMutability": "view",
      "type": "function"
    },
    {
      "inputs": [
        {
          "internalType": "uint256",
          "name": "",
          "type": "uint256"
        }
      ],
      "name": "gameStatuses",
      "outputs": [
        {
          "internalType": "enum Game.GameStatus",
          "name": "",
          "type": "uint8"
        }
      ],
      "stateMutability": "view",
      "type": "function"
    },
    {
      "inputs": [
        {
          "internalType": "uint256",
          "name": "",
          "type": "uint256"
        }
      ],
      "name": "hasAsk",
      "outputs": [
        {
          "internalType": "bool",
          "name": "",
          "type": "bool"
        }
      ],
      "stateMutability": "view",
      "type": "function"
    },
    {
      "inputs": [
        {
          "internalType": "uint256",
          "name": "",
          "type": "uint256"
        }
      ],
      "name": "hasCapture",
      "outputs": [
        {
          "internalType": "bool",
          "name": "",
          "type": "bool"
        }
      ],
      "stateMutability": "view",
      "type": "function"
    },
    {
      "inputs": [
        {
          "internalType": "uint256",
          "name": "",
          "type": "uint256"
        }
      ],
      "name": "hasReveal",
      "outputs": [
        {
          "internalType": "bool",
          "name": "",
          "type": "bool"
        }
      ],
      "stateMutability": "view",
      "type": "function"
    },
    {
      "inputs": [
        {
          "internalType": "uint256",
          "name": "a",
          "type": "uint256"
        },
        {
          "internalType": "uint256",
          "name": "b",
          "type": "uint256"
        }
      ],
      "name": "min",
      "outputs": [
        {
          "internalType": "uint256",
          "name": "",
          "type": "uint256"
        }
      ],
      "stateMutability": "pure",
      "type": "function"
    },
    {
      "inputs": [
        {
          "internalType": "uint256",
          "name": "",
          "type": "uint256"
        },
        {
          "internalType": "uint256",
          "name": "",
          "type": "uint256"
        }
      ],
      "name": "movesHashes",
      "outputs": [
        {
          "internalType": "uint256",
          "name": "",
          "type": "uint256"
        }
      ],
      "stateMutability": "view",
      "type": "function"
    },
    {
      "inputs": [],
      "name": "nextGameId",
      "outputs": [
        {
          "internalType": "uint256",
          "name": "",
          "type": "uint256"
        }
      ],
      "stateMutability": "view",
      "type": "function"
    },
    {
      "inputs": [
        {
          "internalType": "uint256",
          "name": "gameId",
          "type": "uint256"
        }
      ],
      "name": "numberOfAgents",
      "outputs": [
        {
          "internalType": "uint256",
          "name": "",
          "type": "uint256"
        }
      ],
      "stateMutability": "view",
      "type": "function"
    },
    {
      "inputs": [
        {
          "internalType": "uint256",
          "name": "gameId",
          "type": "uint256"
        }
      ],
      "name": "numberOfRecruiterMoves",
      "outputs": [
        {
          "internalType": "uint256",
          "name": "",
          "type": "uint256"
        }
      ],
      "stateMutability": "view",
      "type": "function"
    },
    {
      "inputs": [
        {
          "internalType": "uint256",
          "name": "gameId",
          "type": "uint256"
        }
      ],
      "name": "openGame",
      "outputs": [],
      "stateMutability": "nonpayable",
      "type": "function"
    },
    {
      "inputs": [
        {
          "internalType": "uint256",
          "name": "gameId",
          "type": "uint256"
        },
        {
          "internalType": "uint256",
          "name": "moveHash",
          "type": "uint256"
        },
        {
          "internalType": "uint256[2]",
          "name": "a",
          "type": "uint256[2]"
        },
        {
          "internalType": "uint256[2][2]",
          "name": "b",
          "type": "uint256[2][2]"
        },
        {
          "internalType": "uint256[2]",
          "name": "c",
          "type": "uint256[2]"
        },
        {
          "internalType": "uint256[2]",
          "name": "input",
          "type": "uint256[2]"
        }
      ],
      "name": "recruiterFirstMove",
      "outputs": [],
      "stateMutability": "nonpayable",
      "type": "function"
    },
    {
      "inputs": [
        {
          "internalType": "uint256",
          "name": "gameId",
          "type": "uint256"
        },
        {
          "internalType": "uint256",
          "name": "moveHash",
          "type": "uint256"
        },
        {
          "internalType": "uint256[2]",
          "name": "a",
          "type": "uint256[2]"
        },
        {
          "internalType": "uint256[2][2]",
          "name": "b",
          "type": "uint256[2][2]"
        },
        {
          "internalType": "uint256[2]",
          "name": "c",
          "type": "uint256[2]"
        },
        {
          "internalType": "uint256[4]",
          "name": "input",
          "type": "uint256[4]"
        }
      ],
      "name": "recruiterMove",
      "outputs": [],
      "stateMutability": "nonpayable",
      "type": "function"
    },
    {
      "inputs": [
        {
          "internalType": "uint256",
          "name": "gameId",
          "type": "uint256"
        },
        {
          "internalType": "uint256",
          "name": "moveHash",
          "type": "uint256"
        },
        {
          "internalType": "uint256[2]",
          "name": "a",
          "type": "uint256[2]"
        },
        {
          "internalType": "uint256[2][2]",
          "name": "b",
          "type": "uint256[2][2]"
        },
        {
          "internalType": "uint256[2]",
          "name": "c",
          "type": "uint256[2]"
        },
        {
          "internalType": "uint256[4]",
          "name": "input",
          "type": "uint256[4]"
        }
      ],
      "name": "recruiterMoveInitial",
      "outputs": [],
      "stateMutability": "nonpayable",
      "type": "function"
    },
    {
      "inputs": [],
      "name": "recruiterMoveVerifier",
      "outputs": [
        {
          "internalType": "contract RecruiterMoveVerifier",
          "name": "",
          "type": "address"
        }
      ],
      "stateMutability": "view",
      "type": "function"
    },
    {
      "inputs": [
        {
          "internalType": "uint256",
          "name": "",
          "type": "uint256"
        }
      ],
      "name": "recruiters",
      "outputs": [
        {
          "internalType": "address",
          "name": "",
          "type": "address"
        }
      ],
      "stateMutability": "view",
      "type": "function"
    },
    {
      "inputs": [
        {
          "internalType": "uint256",
          "name": "",
          "type": "uint256"
        }
      ],
      "name": "rounds",
      "outputs": [
        {
          "internalType": "uint256",
          "name": "number",
          "type": "uint256"
        },
        {
          "internalType": "bool",
          "name": "recruiterMoved",
          "type": "bool"
        },
        {
          "internalType": "uint256",
          "name": "numberOfAgentsActed",
          "type": "uint256"
        }
      ],
      "stateMutability": "view",
      "type": "function"
    },
    {
      "inputs": [
        {
          "internalType": "uint256",
          "name": "gameId",
          "type": "uint256"
        },
        {
          "internalType": "address",
          "name": "recruiter",
          "type": "address"
        }
      ],
      "name": "setRecruiter",
      "outputs": [],
      "stateMutability": "nonpayable",
      "type": "function"
    },
    {
      "inputs": [
        {
          "internalType": "uint256",
          "name": "gameId",
          "type": "uint256"
        }
      ],
      "name": "startGame",
      "outputs": [],
      "stateMutability": "nonpayable",
      "type": "function"
    },
    {
      "inputs": [
        {
          "internalType": "uint256",
          "name": "",
          "type": "uint256"
        },
        {
          "internalType": "uint256",
          "name": "",
          "type": "uint256"
        },
        {
          "internalType": "uint256",
          "name": "",
          "type": "uint256"
        }
      ],
      "name": "tokens",
      "outputs": [
        {
          "internalType": "uint256",
          "name": "number",
          "type": "uint256"
        },
        {
          "internalType": "bool",
          "name": "numberRevelead",
          "type": "bool"
        },
        {
          "internalType": "bool",
          "name": "revealed",
          "type": "bool"
        }
      ],
      "stateMutability": "view",
      "type": "function"
    }
  ],
  "bytecode": {
    "object": "0x60806040523480156200001157600080fd5b50604051620030b7380380620030b7833981016040819052620000349162000544565b600080546001600160a01b03199081166001600160a01b03898116919091178355600480548316898316178155600580548416898416178155600180548516898516178155600280548616898616179055600380549095169387169390931784556040805160a08082018352878252602080830187905282840188905260608084018690526080808501879052855193840186528a845291830195909552928101949094529183019390935291810192909252620000f39291620003d8565b6040805160a0808201835260018083526004602080850182905284860191909152600060608086018290526005608080880182905288519687018952928652928501849052600396850196909652948301526006938201939093526200015b929190620003d8565b6040805160a080820183526002808352600360208085018290526001858701526060808601839052600060808088018290528851968701895290865291850184905295840191909152600594830194909452600693820193909352620001c3929190620003d8565b6040805160a08082018352600380835260016020808501829052848601839052606080860183905260026080808801919091528751958601885260008652918501929092529483018290526004908301526006938201939093526200022a929190620003d8565b6040805160a08082018352600480835260026020808501829052600585870181905260006060808801829052608080890187905289519788018a5291875292860184905296850192909252600390840152938201939093526200028f929190620003d8565b6040805160a0808201835260058083526002602080850191909152600384860152606080850183905260016080808701829052875195860188526000865292850184905295840195909552600494830194909452600693820193909352620002f9929190620003d8565b6040805160a08082018352600082526001602080840182905260028486018190526004606080870182905260808088018490528851968701895294865292850191909152600395840195909552600690830152810192909252620003619160079190620003d8565b6040805160a080820183526000808352600260208085018290528486019290925260046060808601829052600360808088019190915287519586018852928552600193850193909352948301859052908201939093526006928101839052620003cc929190620003d8565b5050505050506200061f565b60005b60058160ff161015620005215760006040518060400160405280858460ff16600581106200040d576200040d620005c5565b602002015160ff168152602001848460ff1660058110620004325762000432620005c5565b602002015160ff1690529050600d6000866007811115620004575762000457620005db565b60078111156200046b576200046b620005db565b815260208082019290925260409081016000908120805460018082018355918352848320865191018054878701805160ff94851661ffff199093168317610100918616820217909355908552600e8752858520905183168552865293832080549283018155835291849020938104909301805489949193601f90921690910a918202191690836007811115620005055762000505620005db565b02179055505080806200051890620005f1565b915050620003db565b50505050565b80516001600160a01b03811681146200053f57600080fd5b919050565b60008060008060008060c087890312156200055e57600080fd5b620005698762000527565b9550620005796020880162000527565b9450620005896040880162000527565b9350620005996060880162000527565b9250620005a96080880162000527565b9150620005b960a0880162000527565b90509295509295509295565b634e487b7160e01b600052603260045260246000fd5b634e487b7160e01b600052602160045260246000fd5b600060ff821660ff81036200061657634e487b7160e01b600052601160045260246000fd5b60010192915050565b612a88806200062f6000396000f3fe608060405234801561001057600080fd5b50600436106102505760003560e01c80638303dde911610146578063beb8ba20116100c3578063e0ceaf1211610087578063e0ceaf121461068d578063e29eedaf146106a0578063e5ed1d59146106b3578063ec55fe2c146106c6578063f0501198146106e6578063fde2518c1461071257600080fd5b8063beb8ba201461062e578063d0399bb814610641578063d608389114610654578063da7fbdb714610667578063db21d0af1461067a57600080fd5b8063a273de4b1161010a578063a273de4b1461059f578063b135bbb0146105cf578063b306db16146105d8578063bc275773146105eb578063bdfd1c3a1461061b57600080fd5b80638303dde914610506578063854fc79b146105195780638c65c81f1461052c5780638d387a4a14610579578063971600ab1461058c57600080fd5b806343d3034e116101d45780637005050411610198578063700505041461046357806370ace7c31461049a578063737d1c94146104bd5780637ae2b5c7146104d05780637cf090ad146104e357600080fd5b806343d3034e146103635780634e8332b71461037657806351218cc4146103bc5780636bb635e71461041d5780636fee2fe41461045057600080fd5b80630f5ead741161021b5780630f5ead74146102d657806311bc91011461030157806321cc79901461032a578063272eb5df1461033d5780634009139f1461035057600080fd5b80621b090b14610255578062bf381714610288578062f5544f1461029d57806304efd4a8146102b05780630a4debe5146102c3575b600080fd5b61027561026336600461217c565b60009081526006602052604090205490565b6040519081526020015b60405180910390f35b61029b610296366004612195565b610725565b005b61029b6102ab36600461217c565b610831565b6102756102be3660046121d1565b6108a0565b61029b6102d13660046122d1565b6108d1565b6003546102e9906001600160a01b031681565b6040516001600160a01b03909116815260200161027f565b6102e961030f36600461217c565b6009602052600090815260409020546001600160a01b031681565b61029b6103383660046123ac565b610a6a565b61029b61034b36600461240d565b610c29565b61029b61035e366004612440565b610dbd565b61029b610371366004612504565b610f7f565b6103a261038436600461217c565b60156020526000908152604090205460ff8082169161010090041682565b6040805160ff93841681529290911660208301520161027f565b6104006103ca366004612568565b600f6020908152600093845260408085208252928452828420905282529020805460019091015460ff8082169161010090041683565b60408051938452911515602084015215159082015260600161027f565b61044061042b36600461217c565b60146020526000908152604090205460ff1681565b604051901515815260200161027f565b6102e961045e3660046121d1565b6110fa565b6103a2610471366004612195565b600b60209081526000928352604080842090915290825290205460ff8082169161010090041682565b6104406104a836600461217c565b60166020526000908152604090205460ff1681565b61029b6104cb36600461240d565b611132565b6102756104de3660046121d1565b6112a1565b6104406104f136600461217c565b60126020526000908152604090205460ff1681565b6103a2610514366004612594565b6112ba565b61029b61052736600461240d565b6112f5565b61055e61053a36600461217c565b600a60205260009081526040902080546001820154600290920154909160ff169083565b6040805193845291151560208401529082015260600161027f565b61029b6105873660046125c4565b611464565b6004546102e9906001600160a01b031681565b6105c26105ad36600461217c565b60116020526000908152604090205460ff1681565b60405161027f919061265a565b61027560105481565b61029b6105e63660046123ac565b6115b9565b61060e6105f936600461217c565b60086020526000908152604090205460ff1681565b60405161027f9190612674565b6005546102e9906001600160a01b031681565b61029b61063c366004612504565b611791565b61029b61064f36600461217c565b611921565b61044061066236600461217c565b6119c2565b61029b61067536600461269e565b611a08565b6002546102e9906001600160a01b031681565b6001546102e9906001600160a01b031681565b61029b6106ae366004612195565b611d12565b61029b6106c136600461217c565b611da8565b6102756106d436600461217c565b60009081526007602052604090205490565b6103a26106f436600461217c565b60136020526000908152604090205460ff8082169161010090041682565b6000546102e9906001600160a01b031681565b8160018060008381526008602052604090205460ff16600581111561074c5761074c612644565b146107725760405162461bcd60e51b8152600401610769906126da565b60405180910390fd5b60008481526007602052604090205460048111156107d25760405162461bcd60e51b815260206004820152601860248201527f496e76616c6964206e756d626572206f66206167656e747300000000000000006044820152606401610769565b50505060008281526007602090815260408083208054600181810183559185528385200180546001600160a01b039096166001600160a01b031990961686179055948352600c825280832093835292905220805460ff19169091179055565b8060008060008381526008602052604090205460ff16600581111561085857610858612644565b146108755760405162461bcd60e51b8152600401610769906126da565b610880836001612727565b60105550506000908152600860205260409020805460ff19166001179055565b600660205281600052604060002081815481106108bc57600080fd5b90600052602060002001600091509150505481565b60008681526009602052604090205486906001600160a01b031633146109095760405162461bcd60e51b81526004016107699061273f565b8660028060008381526008602052604090205460ff16600581111561093057610930612644565b1461094d5760405162461bcd60e51b8152600401610769906126da565b60008981526006602052604090205480156109aa5760405162461bcd60e51b815260206004820152601d60248201527f52656372756974657220616c7265616479206d6164652061206d6f76650000006044820152606401610769565b60048054604051637ae4eb4f60e11b81526001600160a01b039091169163f5c9d69e916109df918c918c918c918c91016127e5565b602060405180830381865afa1580156109fc573d6000803e3d6000fd5b505050506040513d601f19601f82011682018060405250810190610a209190612825565b610a3c5760405162461bcd60e51b815260040161076990612847565b5050506000968752505060066020908152604086208054600181018255908752952090940192909255505050565b60008681526009602052604090205486906001600160a01b03163314610aa25760405162461bcd60e51b81526004016107699061273f565b8660028060008381526008602052604090205460ff166005811115610ac957610ac9612644565b14610ae65760405162461bcd60e51b8152600401610769906126da565b60008981526006602052604090205460058110610b3e5760405162461bcd60e51b8152602060048201526016602482015275546f6f206d616e7920696e697469616c206d6f76657360501b6044820152606401610769565b600554604051635fe8c13b60e01b81526001600160a01b0390911690635fe8c13b90610b74908b908b908b908b90600401612877565b602060405180830381865afa158015610b91573d6000803e3d6000fd5b505050506040513d601f19601f82011682018060405250810190610bb59190612825565b610bd15760405162461bcd60e51b815260040161076990612847565b60008a8152600660209081526040822080546001810182559083529120018990556004819003610c1d5760008a8152600860205260409020805460ff19166003179055610c1d8a611fc8565b50505050505050505050565b6000828152600a60205260409020600181015460ff16610c5b5760405162461bcd60e51b8152600401610769906128d4565b33600090815260048201602052604090205460ff1615610c8d5760405162461bcd60e51b81526004016107699061290b565b81356000908152600e60209081526040808320828601358452909152812080548290610cbb57610cbb612938565b600091825260208083208183040154878452601190915260409092208054601f9092166101000a90920460ff16925082919060ff19166001836007811115610d0557610d05612644565b021790555060008481526012602090815260408083208054600160ff19918216811790925533855260048701909352908320805490921617905560028301805491610d4f8361294e565b9190505550336001600160a01b03167f89d440be44961433f3a0ef1e19a88ade6f47a815ecc31a856895f464072e011882604051610d8d919061265a565b60405180910390a2600084815260076020526040902054826002015403610db757610db784611fc8565b50505050565b60008581526009602052604090205485906001600160a01b03163314610df55760405162461bcd60e51b81526004016107699061273f565b8560038060008381526008602052604090205460ff166005811115610e1c57610e1c612644565b14610e395760405162461bcd60e51b8152600401610769906126da565b600054604051631ab2512d60e11b81526001600160a01b0390911690633564a25a90610e6f908a908a908a908a90600401612967565b602060405180830381865afa158015610e8c573d6000803e3d6000fd5b505050506040513d601f19601f82011682018060405250810190610eb09190612825565b610ecc5760405162461bcd60e51b815260040161076990612847565b604080516060810182526000808252602080830182815260018486018181528e8552600f84528685206101608c0151865284528685206101808c01518652845286852095518655915194018054915161ffff1990921694151561ff0019169490941761010091151591909102179092558a81526012909152818120805460ff1916905590517f591d1759d6064e2990f8179b350589202e8c28dc2cdea284a4478361dd39e4a49190a15050505050505050565b60008581526009602052604090205485906001600160a01b03163314610fb75760405162461bcd60e51b81526004016107699061273f565b8560038060008381526008602052604090205460ff166005811115610fde57610fde612644565b14610ffb5760405162461bcd60e51b8152600401610769906126da565b600254604051635fe8c13b60e01b81526001600160a01b0390911690635fe8c13b90611031908a908a908a908a90600401612877565b602060405180830381865afa15801561104e573d6000803e3d6000fd5b505050506040513d601f19601f820116820180604052508101906110729190612825565b61108e5760405162461bcd60e51b815260040161076990612847565b6000888152601660205260409020805460ff1916905583516001036110c7576000888152600860205260409020805460ff191660051790555b6040517f222cfcb8e1d27019350b4e1333c6f1e132af91b3299d4c8c08c727c9eeed8c6090600090a15050505050505050565b6007602052816000526040600020818154811061111657600080fd5b6000918252602090912001546001600160a01b03169150829050565b6000828152600a60205260409020600181015460ff166111645760405162461bcd60e51b8152600401610769906128d4565b33600090815260048201602052604090205460ff16156111965760405162461bcd60e51b81526004016107699061290b565b60006040518060400160405280846000600281106111b6576111b6612938565b602002013560ff168152602001846001600281106111d6576111d6612938565b60ff6020918202929092013582169092526000878152601383526040808220855181548787015186166101000261ffff1990911691909516179390931790925560148352818120805460ff199081166001908117909255338352600488019094529181208054909316909117909155600284018054929350906112588361294e565b909155505060408051825160ff90811682526020808501519091169082015233917fff9ffde1e1776dd555b580d61131dd5c3c65f244927c6ed59f7fd29681566b959101610d8d565b6000818310156112b157826112b3565b815b9392505050565b600d60205281600052604060002081815481106112d657600080fd5b60009182526020909120015460ff808216935061010090910416905082565b6000828152600a60205260409020600181015460ff166113275760405162461bcd60e51b8152600401610769906128d4565b33600090815260048201602052604090205460ff16156113595760405162461bcd60e51b81526004016107699061290b565b600060405180604001604052808460006002811061137957611379612938565b602002013560ff1681526020018460016002811061139957611399612938565b60ff6020918202929092013582169092526000878152601583526040808220855181548787015186166101000261ffff1990911691909516179390931790925560168352818120805460ff1990811660019081179092553383526004880190945291812080549093169091179091556002840180549293509061141b8361294e565b909155505060408051825160ff90811682526020808501519091169082015233917f8b12abbc4e529afca987d415e4f8d8aa73d368692f3b84bfcff32fbf238cff189101610d8d565b60008581526009602052604090205485906001600160a01b0316331461149c5760405162461bcd60e51b81526004016107699061273f565b8560038060008381526008602052604090205460ff1660058111156114c3576114c3612644565b146114e05760405162461bcd60e51b8152600401610769906126da565b60015460405163311470b360e11b81526001600160a01b0390911690636228e16690611516908a908a908a908a906004016129b8565b602060405180830381865afa158015611533573d6000803e3d6000fd5b505050506040513d601f19601f820116820180604052508101906115579190612825565b6115735760405162461bcd60e51b815260040161076990612847565b600088815260126020526040808220805460ff19169055517f591d1759d6064e2990f8179b350589202e8c28dc2cdea284a4478361dd39e4a49190a15050505050505050565b60008681526009602052604090205486906001600160a01b031633146115f15760405162461bcd60e51b81526004016107699061273f565b8660038060008381526008602052604090205460ff16600581111561161857611618612644565b146116355760405162461bcd60e51b8152600401610769906126da565b6000898152600a60205260409020600181015460ff16156116985760405162461bcd60e51b815260206004820152601760248201527f52656372756974657220616c7265616479206d6f7665640000000000000000006044820152606401610769565b600554604051635fe8c13b60e01b81526001600160a01b0390911690635fe8c13b906116ce908b908b908b908b90600401612877565b602060405180830381865afa1580156116eb573d6000803e3d6000fd5b505050506040513d601f19601f8201168201806040525081019061170f9190612825565b61172b5760405162461bcd60e51b815260040161076990612847565b60008a81526006602090815260408083208054600181810183559185529284209092018c9055838201805460ff1916909217909155517f156bc0e8ea64e9ba4b24b98e5b5aaeb63e57453e491f3e47d0a155b103d527c19190a150505050505050505050565b60008581526009602052604090205485906001600160a01b031633146117c95760405162461bcd60e51b81526004016107699061273f565b8560038060008381526008602052604090205460ff1660058111156117f0576117f0612644565b1461180d5760405162461bcd60e51b8152600401610769906126da565b600354604051635fe8c13b60e01b81526001600160a01b0390911690635fe8c13b90611843908a908a908a908a90600401612877565b602060405180830381865afa158015611860573d6000803e3d6000fd5b505050506040513d601f19601f820116820180604052508101906118849190612825565b6118a05760405162461bcd60e51b815260040161076990612847565b6000888152600f6020908152604080832087518452825280832087830151845282528083208782015181556001808201805460ff1990811690921790558c8552601490935281842080549093169092555190917f7e2ffb2f0aaec15e244da050ff6fe4c0a13766053b6f32dc2d867a78d98984f791a1505050505050505050565b8060038060008381526008602052604090205460ff16600581111561194857611948612644565b146119655760405162461bcd60e51b8152600401610769906126da565b600083815260096020908152604080832080546001600160a01b031916905560088252808320805460ff19166001179055600690915281206119a691612142565b60008381526007602052604081206119bd91612142565b505050565b6000818152600760205260408120546004118015611a025750600160008381526008602052604090205460ff166005811115611a0057611a00612644565b145b92915050565b8260038060008381526008602052604090205460ff166005811115611a2f57611a2f612644565b14611a4c5760405162461bcd60e51b8152600401610769906126da565b6000858152600c60209081526040808320338452909152902054859060ff16611aa65760405162461bcd60e51b815260206004820152600c60248201526b139bdd08185b881859d95b9d60a21b6044820152606401610769565b6000868152600a60205260409020600181015460ff16611ad85760405162461bcd60e51b8152600401610769906128d4565b33600090815260038201602052604090205460ff1615611b305760405162461bcd60e51b81526020600482015260136024820152721059d95b9d08185b1c9958591e481b5bdd9959606a1b6044820152606401610769565b6000878152600b60209081526040808320338452825280832081518083019092525460ff808216808452610100909204811693830193909352909291891611611b85578151611b80908990612a09565b611b91565b8151611b919089612a09565b90506000826020015160ff168860ff1611611bbb57878360200151611bb69190612a09565b611bca565b6020830151611bca9089612a09565b90508160ff166002148015611be1575060ff811615155b15611bfe5760405162461bcd60e51b815260040161076990612a2c565b8060ff166002148015611c13575060ff821615155b15611c305760405162461bcd60e51b815260040161076990612a2c565b60018260ff161180611c45575060018160ff16115b15611c625760405162461bcd60e51b815260040161076990612a2c565b60408051808201825260ff8b811682528a8116602080840191825260008f8152600b82528581203380835290835286822086518154865188166101000261ffff199091169188169190911717905560038b01835290869020805460ff191660011790558551855185168152925190931690820152919290917f4a396c85fafa10375fcfc998e11d4b3e61787deadde0bee02ed301640e698686910160405180910390a25050505050505050505050565b8160018060008381526008602052604090205460ff166005811115611d3957611d39612644565b14611d565760405162461bcd60e51b8152600401610769906126da565b6000848152600960205260409020546001600160a01b031615611d7857600080fd5b505060009182526009602052604090912080546001600160a01b0319166001600160a01b03909216919091179055565b60008181526009602052604090205481906001600160a01b03163314611de05760405162461bcd60e51b81526004016107699061273f565b8160018060008381526008602052604090205460ff166005811115611e0757611e07612644565b14611e245760405162461bcd60e51b8152600401610769906126da565b60008481526007602081815260408084205460088352818520805460ff19166002179055815160c0810183526080810186815260a0820187905281528251808401845286815280850186905281850152825180840184526005808252818601889052828501919091528351808501909452835292820193909352606082015290915b82811015611fbf576000878152600760205260408120805483908110611ece57611ece612938565b6000918252602090912001546001600160a01b03169050828260048110611ef757611ef7612938565b6020908102919091015160008a8152600b835260408082206001600160a01b038616808452908552912082518154939094015160ff9081166101000261ffff19909416941693909317919091179091557f4a396c85fafa10375fcfc998e11d4b3e61787deadde0bee02ed301640e698686848460048110611f7a57611f7a612938565b6020020151604051611fa49190815160ff9081168252602092830151169181019190915260400190565b60405180910390a25080611fb78161294e565b915050611ea6565b50505050505050565b6000818152600a6020908152604080832060078352818420805483518186028101860190945280845291949390919083018282801561203057602002820191906000526020600020905b81546001600160a01b03168152600190910190602001808311612012575b5050505050905060008260000154600161204a9190612727565b9050600e811115612073575050506000908152600860205260409020805460ff19166004179055565b60005b83600201548110156121275783600401600084838151811061209a5761209a612938565b60200260200101516001600160a01b03166001600160a01b0316815260200190815260200160002060006101000a81549060ff02191690558360030160008483815181106120ea576120ea612938565b6020908102919091018101516001600160a01b03168252810191909152604001600020805460ff191690558061211f8161294e565b915050612076565b5082555060018101805460ff19169055600060029091015550565b50805460008255906000526020600020908101906121609190612163565b50565b5b808211156121785760008155600101612164565b5090565b60006020828403121561218e57600080fd5b5035919050565b600080604083850312156121a857600080fd5b8235915060208301356001600160a01b03811681146121c657600080fd5b809150509250929050565b600080604083850312156121e457600080fd5b50508035926020909101359150565b634e487b7160e01b600052604160045260246000fd5b6040805190810167ffffffffffffffff8111828210171561222c5761222c6121f3565b60405290565b600082601f83011261224357600080fd5b61224b612209565b80604084018581111561225d57600080fd5b845b8181101561227757803584526020938401930161225f565b509095945050505050565b600082601f83011261229357600080fd5b61229b612209565b8060808401858111156122ad57600080fd5b845b81811015612277576122c18782612232565b84526020909301926040016122af565b60008060008060008061018087890312156122eb57600080fd5b86359550602087013594506123038860408901612232565b93506123128860808901612282565b9250612322886101008901612232565b9150612332886101408901612232565b90509295509295509295565b600082601f83011261234f57600080fd5b6040516080810181811067ffffffffffffffff82111715612372576123726121f3565b60405280608084018581111561238757600080fd5b845b818110156123a1578035835260209283019201612389565b509195945050505050565b6000806000806000806101c087890312156123c657600080fd5b86359550602087013594506123de8860408901612232565b93506123ed8860808901612282565b92506123fd886101008901612232565b915061233288610140890161233e565b6000806060838503121561242057600080fd5b823591508360608401111561243457600080fd5b50926020919091019150565b600080600080600061048080878903121561245a57600080fd5b86359550602061246c89828a01612232565b955061247b8960608a01612282565b945061248a8960e08a01612232565b93508861013f89011261249c57600080fd5b604051610360810181811067ffffffffffffffff821117156124c0576124c06121f3565b60405291880191808a8411156124d557600080fd5b6101208a015b848110156124f257803582529083019083016124db565b50508093505050509295509295909350565b60008060008060006101a0868803121561251d57600080fd5b8535945061252e8760208801612232565b935061253d8760608801612282565b925061254c8760e08801612232565b915061255c87610120880161233e565b90509295509295909350565b60008060006060848603121561257d57600080fd5b505081359360208301359350604090920135919050565b600080604083850312156125a757600080fd5b8235600881106125b657600080fd5b946020939093013593505050565b60008060008060006104408087890312156125de57600080fd5b8635955060206125f089828a01612232565b95506125ff8960608a01612282565b945061260e8960e08a01612232565b93508861013f89011261262057600080fd5b604051610320810181811067ffffffffffffffff821117156124c0576124c06121f3565b634e487b7160e01b600052602160045260246000fd5b602081016008831061266e5761266e612644565b91905290565b602081016006831061266e5761266e612644565b803560ff8116811461269957600080fd5b919050565b6000806000606084860312156126b357600080fd5b833592506126c360208501612688565b91506126d160408501612688565b90509250925092565b6020808252601e908201527f496e76616c69642067616d652073746174757320666f7220616374696f6e0000604082015260600190565b634e487b7160e01b600052601160045260246000fd5b6000821982111561273a5761273a612711565b500190565b6020808252601190820152702737ba103a3432903932b1b93ab4ba32b960791b604082015260600190565b8060005b6002811015610db757815184526020938401939091019060010161276e565b806000805b60028082106127a157506127de565b835186845b838110156127c45782518252602092830192909101906001016127a6565b505050604095909501945060209290920191600101612792565b5050505050565b61014081016127f4828761276a565b612801604083018661278d565b61280e60c083018561276a565b61281c61010083018461276a565b95945050505050565b60006020828403121561283757600080fd5b815180151581146112b357600080fd5b6020808252601690820152752330b4b632b2103a37903b32b934b33c90383937b7b360511b604082015260600190565b6101808101612886828761276a565b612893604083018661278d565b6128a060c083018561276a565b61010082018360005b60048110156128c85781518352602092830192909101906001016128a9565b50505095945050505050565b6020808252601b908201527f52656372756974657220686173206e6f74206d6f766564207965740000000000604082015260600190565b6020808252601390820152721059d95b9d08185b1c9958591e481858dd1959606a1b604082015260600190565b634e487b7160e01b600052603260045260246000fd5b60006001820161296057612960612711565b5060010190565b6104608101612976828761276a565b612983604083018661278d565b61299060c083018561276a565b61010082018360005b601b8110156128c8578151835260209283019290910190600101612999565b61042081016129c7828761276a565b6129d4604083018661278d565b6129e160c083018561276a565b61010082018360005b60198110156128c85781518352602092830192909101906001016129ea565b600060ff821660ff841680821015612a2357612a23612711565b90039392505050565b6020808252600c908201526b496e76616c6964206d6f766560a01b60408201526060019056fea2646970667358221220ce375a02ac39c4c5084b0f976b520e68f061f8d7daf601106cc4a4c8c2f44c0164736f6c634300080e0033",
    "linkReferences": {}
  },
  "methodIdentifiers": {
    "addAgent(uint256,address)": "00bf3817",
    "agentAskNoMatchVerifier()": "e0ceaf12",
    "agentAskNotify(uint256,uint256[2])": "272eb5df",
    "agentAskRevealNoPosition(uint256,uint256[2],uint256[2][2],uint256[2],uint256[25])": "8d387a4a",
    "agentAskRevealPosition(uint256,uint256[2],uint256[2][2],uint256[2],uint256[27])": "4009139f",
    "agentAskVerifier()": "fde2518c",
    "agentCapture(uint256,uint256[2],uint256[2][2],uint256[2],uint256[4])": "43d3034e",
    "agentCaptureNotify(uint256,uint256[2])": "854fc79b",
    "agentCaptureVerifier()": "db21d0af",
    "agentMove(uint256,uint8,uint8)": "da7fbdb7",
    "agentPositions(uint256,address)": "70050504",
    "agentReveal(uint256,uint256[2],uint256[2][2],uint256[2],uint256[4])": "beb8ba20",
    "agentRevealNotify(uint256,uint256[2])": "737d1c94",
    "agentRevealVerifier()": "0f5ead74",
    "agents(uint256,uint256)": "6fee2fe4",
    "agentsNeeded(uint256)": "d6083891",
    "currentAgentAsk(uint256)": "a273de4b",
    "currentAgentCapture(uint256)": "4e8332b7",
    "currentAgentReveal(uint256)": "f0501198",
    "endGame(uint256)": "d0399bb8",
    "features(uint8,uint256)": "8303dde9",
    "firstMoveVerifier()": "971600ab",
    "gameStatuses(uint256)": "bc275773",
    "hasAsk(uint256)": "7cf090ad",
    "hasCapture(uint256)": "70ace7c3",
    "hasReveal(uint256)": "6bb635e7",
    "min(uint256,uint256)": "7ae2b5c7",
    "movesHashes(uint256,uint256)": "04efd4a8",
    "nextGameId()": "b135bbb0",
    "numberOfAgents(uint256)": "ec55fe2c",
    "numberOfRecruiterMoves(uint256)": "001b090b",
    "openGame(uint256)": "00f5544f",
    "recruiterFirstMove(uint256,uint256,uint256[2],uint256[2][2],uint256[2],uint256[2])": "0a4debe5",
    "recruiterMove(uint256,uint256,uint256[2],uint256[2][2],uint256[2],uint256[4])": "b306db16",
    "recruiterMoveInitial(uint256,uint256,uint256[2],uint256[2][2],uint256[2],uint256[4])": "21cc7990",
    "recruiterMoveVerifier()": "bdfd1c3a",
    "recruiters(uint256)": "11bc9101",
    "rounds(uint256)": "8c65c81f",
    "setRecruiter(uint256,address)": "e29eedaf",
    "startGame(uint256)": "e5ed1d59",
    "tokens(uint256,uint256,uint256)": "51218cc4"
  },
  "id": 6
}