{
  "abi": [
    {
      "inputs": [],
      "name": "setUp",
      "outputs": [],
      "stateMutability": "nonpayable",
      "type": "function"
    },
    {
      "inputs": [],
      "name": "testGameCreation",
      "outputs": [],
      "stateMutability": "nonpayable",
      "type": "function"
    }
  ],
  "bytecode": {
    "object": "0x608060405234801561001057600080fd5b50612340806100206000396000f3fe60806040523480156200001157600080fd5b50600436106200003a5760003560e01c80630a9254e4146200003f578063af9b0944146200004b575b600080fd5b6200004962000055565b005b62000049620000fe565b6040516200006390620003cd565b604051809103906000f08015801562000080573d6000803e3d6000fd5b50600080546001600160a01b0319166001600160a01b03929092169182179055604051620000ae90620003db565b6001600160a01b039091168152602001604051809103906000f080158015620000db573d6000803e3d6000fd5b50600180546001600160a01b0319166001600160a01b0392909216919091179055565b604080516001808252818301909252600091602080830190803683370190505090507371c7656ec7ab88b098defb751b7401b5f6d8976f816000815181106200014b576200014b620003e9565b6001600160a01b039283166020918202929092010152600154604051630d3b778560e31b81527f1ae347f9e0b8129ea0868504e38efe1e2723b56a4ecf361fd0663ea7046cc30a9291909116906369dbbc2890620001b390607b9086908690600401620003ff565b600060405180830381600087803b158015620001ce57600080fd5b505af1158015620001e3573d6000803e3d6000fd5b5050505081600081518110620001fd57620001fd620003e9565b6020908102919091010151600154604051631bfb8bf960e21b8152607b6004820152600060248201526001600160a01b039283169290911690636fee2fe490604401602060405180830381865afa1580156200025d573d6000803e3d6000fd5b505050506040513d601f19601f8201168201806040525081019062000283919062000461565b6001600160a01b0316146200029c576200029c62000493565b6001546040516322fe0ea360e01b8152607b600482015282916001600160a01b0316906322fe0ea390602401602060405180830381865afa158015620002e6573d6000803e3d6000fd5b505050506040513d601f19601f820116820180604052508101906200030c9190620004a9565b146200031c576200031c62000493565b60018054604051638303dde960e01b815260009283926001600160a01b031691638303dde9916200035391859190600401620004c3565b6040805180830381865afa15801562000370573d6000803e3d6000fd5b505050506040513d601f19601f8201168201806040525081019062000396919062000507565b909250905060ff8216600114620003b157620003b162000493565b60ff8116600514620003c757620003c762000493565b50505050565b6111af806200054083390190565b610c1c80620016ef83390190565b634e487b7160e01b600052603260045260246000fd5b6000606082018583526020606081850152818651808452608086019150828801935060005b818110156200044b5784516001600160a01b03168352938301939183019160010162000424565b5050809350505050826040830152949350505050565b6000602082840312156200047457600080fd5b81516001600160a01b03811681146200048c57600080fd5b9392505050565b634e487b7160e01b600052600160045260246000fd5b600060208284031215620004bc57600080fd5b5051919050565b6040810160088410620004e657634e487b7160e01b600052602160045260246000fd5b9281526020015290565b805160ff811681146200050257600080fd5b919050565b600080604083850312156200051b57600080fd5b6200052683620004f0565b91506200053660208401620004f0565b9050925092905056fe608060405234801561001057600080fd5b5061118f806100206000396000f3fe608060405234801561001057600080fd5b506004361061002b5760003560e01c8063f5c9d69e14610030575b600080fd5b61004361003e366004611004565b610057565b604051901515815260200160405180910390f35b6000610061610e2d565b60408051808201825287518152602080890151818301529083528151608081018352875151818401908152885183015160608084019190915290825283518085018552898401805151825251840151818501528284015284830191909152825180840184528751815287830151818401528484015282516002808252918101845260009390928301908036833701905050905060005b600281101561014657848160028110610112576101126110a4565b6020020151828281518110610129576101296110a4565b60209081029190910101528061013e816110d0565b9150506100f7565b506101518183610172565b6000036101635760019250505061016a565b6000925050505b949350505050565b60007f30644e72e131a029b85045b68181585d2833e84879b9709143e1f593f00000018161019e610369565b9050806080015151855160016101b491906110e9565b146101fb5760405162461bcd60e51b81526020600482015260126024820152711d995c9a599a595c8b5898590b5a5b9c1d5d60721b60448201526064015b60405180910390fd5b604080518082019091526000808252602082018190525b86518110156102ec578387828151811061022e5761022e6110a4565b6020026020010151106102835760405162461bcd60e51b815260206004820152601f60248201527f76657269666965722d6774652d736e61726b2d7363616c61722d6669656c640060448201526064016101f2565b6102d8826102d3856080015184600161029c91906110e9565b815181106102ac576102ac6110a4565b60200260200101518a85815181106102c6576102c66110a4565b602002602001015161077c565b610812565b9150806102e4816110d0565b915050610212565b50610315818360800151600081518110610308576103086110a4565b6020026020010151610812565b905061034b61032786600001516108ab565b8660200151846000015185602001518587604001518b60400151896060015161094a565b61035b5760019350505050610363565b600093505050505b92915050565b610371610e7e565b6040805180820182527f2d4d9aa7e302d9df41749d5507949d05dbea33fbb16c643b22f599a2be6df2e281527f14bedd503c37ceb061d8ec60209fe345ce89830a19230301f076caff004d19266020808301919091529083528151608080820184527f0967032fcbf776d1afc985f88877f182d38480a653f2decaa9794cbc3bf3060c8285019081527f0e187847ad4c798374d0d6732bf501847dd68bc0e071241e0213bc7fc13db7ab606080850191909152908352845180860186527f304cfbd1e08a704a99f5e847d93f8c3caafddec46b7a0d379da69a4d112346a781527f1739c1b1a457a8c7313123d24d2f9192f896b7c63eea05a9d57f06547ad0cec8818601528385015285840192909252835180820185527f198e9393920d483a7260bfb731fb5d25f1aa493335a9e71297e485b7aef312c28186019081527f1800deef121f1e76426a00665e5c4479674322d4f75edadd46debd5cd992f6ed828501528152845180860186527f090689d0585ff075ec9e99ad690c3395bc4b313370b38ef355acdadcd122975b81527f12c85ea5db8c6deb4aab71808dcb408fe3d1e7690c43d37b4ce6cc0166fa7daa818601528185015285850152835180820185527f20602da04123292a3201993f49beb711e6f7312e10ed8632ce12da8175eb70278186019081527f2416935c6a994bc52375f4ffd714acbcc5b7ca8d50505586ff86d15190e3ee6f828501528152845180860186527f24acfca6aab36d13649700d2e9d420c00b767ad711ce0de3ed8a645df943e42481527f06190fce45e8b645b3a0231ca2a8df302ecf8b6b5bd2119f77b10bc0cdba931c818601528185015291850191909152825160038082529181019093529082015b60408051808201909152600080825260208201528152602001906001900390816105ed57505060808201908152604080518082019091527f12ba1b2d2eea9b85c82a1781ea143db063b2f3f8ef55e23c197ce625823df24681527f0c8aea686153bfc9c01fc93eeef847e19be91acd6644044fa38184ba90a690a5602082015290518051600090610680576106806110a4565b602002602001018190525060405180604001604052807f15fd988632a2d3395bf2c712cd64b0b70fae723e3106aedfad2f78b4d09c774a81526020017f2d241f41a422d2bc2ada2d8bf8d5e3c34dbbd75c3fdc63d1d7b452e4bc7111b981525081608001516001815181106106f7576106f76110a4565b602002602001018190525060405180604001604052807f0709aeddd7a2e4f61860d9070a687b86499bffac44fc6d9746b985330bd841be81526020017f14c0d8e02fc1dd011cffff2d8e20f1ea9087fc07f048d12588c9689c6f6fbe09815250816080015160028151811061076e5761076e6110a4565b602002602001018190525090565b6040805180820190915260008082526020820152610798610ecf565b835181526020808501519082015260408101839052600060608360808460076107d05a03fa905080806107c757fe5b508061080a5760405162461bcd60e51b81526020600482015260126024820152711c185a5c9a5b99cb5b5d5b0b59985a5b195960721b60448201526064016101f2565b505092915050565b604080518082019091526000808252602082015261082e610eed565b8351815260208085015181830152835160408301528301516060808301919091526000908360c08460066107d05a03fa9050808061086857fe5b508061080a5760405162461bcd60e51b81526020600482015260126024820152711c185a5c9a5b99cb5859190b59985a5b195960721b60448201526064016101f2565b604080518082019091526000808252602082015281517f30644e72e131a029b85045b68181585d97816a916871ca8d3c208c16d87cfd47901580156108f257506020830151155b156109125750506040805180820190915260008082526020820152919050565b6040518060400160405280846000015181526020018285602001516109379190611101565b6109419084611123565b90529392505050565b60408051600480825260a08201909252600091829190816020015b604080518082019091526000808252602082015281526020019060019003908161096557505060408051600480825260a0820190925291925060009190602082015b6109af610f0b565b8152602001906001900390816109a75790505090508a826000815181106109d8576109d86110a4565b602002602001018190525088826001815181106109f7576109f76110a4565b60200260200101819052508682600281518110610a1657610a166110a4565b60200260200101819052508482600381518110610a3557610a356110a4565b60200260200101819052508981600081518110610a5457610a546110a4565b60200260200101819052508781600181518110610a7357610a736110a4565b60200260200101819052508581600281518110610a9257610a926110a4565b60200260200101819052508381600381518110610ab157610ab16110a4565b6020026020010181905250610ac68282610ad5565b9b9a5050505050505050505050565b60008151835114610b215760405162461bcd60e51b81526020600482015260166024820152751c185a5c9a5b99cb5b195b99dd1a1ccb59985a5b195960521b60448201526064016101f2565b82516000610b3082600661113a565b905060008167ffffffffffffffff811115610b4d57610b4d610f67565b604051908082528060200260200182016040528015610b76578160200160208202803683370190505b50905060005b83811015610db157868181518110610b9657610b966110a4565b60200260200101516000015182826006610bb0919061113a565b610bbb9060006110e9565b81518110610bcb57610bcb6110a4565b602002602001018181525050868181518110610be957610be96110a4565b60200260200101516020015182826006610c03919061113a565b610c0e9060016110e9565b81518110610c1e57610c1e6110a4565b602002602001018181525050858181518110610c3c57610c3c6110a4565b6020908102919091010151515182610c5583600661113a565b610c609060026110e9565b81518110610c7057610c706110a4565b602002602001018181525050858181518110610c8e57610c8e6110a4565b60209081029190910181015151015182610ca983600661113a565b610cb49060036110e9565b81518110610cc457610cc46110a4565b602002602001018181525050858181518110610ce257610ce26110a4565b602002602001015160200151600060028110610d0057610d006110a4565b602002015182610d1183600661113a565b610d1c9060046110e9565b81518110610d2c57610d2c6110a4565b602002602001018181525050858181518110610d4a57610d4a6110a4565b602002602001015160200151600160028110610d6857610d686110a4565b602002015182610d7983600661113a565b610d849060056110e9565b81518110610d9457610d946110a4565b602090810291909101015280610da9816110d0565b915050610b7c565b50610dba610f2b565b6000602082602086026020860160086107d05a03fa90508080610dd957fe5b5080610e1f5760405162461bcd60e51b81526020600482015260156024820152741c185a5c9a5b99cb5bdc18dbd9194b59985a5b1959605a1b60448201526064016101f2565b505115159695505050505050565b6040805160a081019091526000606082018181526080830191909152815260208101610e57610f0b565b8152602001610e79604051806040016040528060008152602001600081525090565b905290565b6040805160e08101909152600060a0820181815260c0830191909152815260208101610ea8610f0b565b8152602001610eb5610f0b565b8152602001610ec2610f0b565b8152602001606081525090565b60405180606001604052806003906020820280368337509192915050565b60405180608001604052806004906020820280368337509192915050565b6040518060400160405280610f1e610f49565b8152602001610e79610f49565b60405180602001604052806001906020820280368337509192915050565b60405180604001604052806002906020820280368337509192915050565b634e487b7160e01b600052604160045260246000fd5b6040805190810167ffffffffffffffff81118282101715610fae57634e487b7160e01b600052604160045260246000fd5b60405290565b600082601f830112610fc557600080fd5b610fcd610f7d565b806040840185811115610fdf57600080fd5b845b81811015610ff9578035845260209384019301610fe1565b509095945050505050565b600080600080610140858703121561101b57600080fd5b6110258686610fb4565b9350604086605f87011261103857600080fd5b611040610f7d565b8060c088018981111561105257600080fd5b8389015b81811015611077576110688b82610fb4565b84526020909301928401611056565b508196506110858a82610fb4565b955050505050611099866101008701610fb4565b905092959194509250565b634e487b7160e01b600052603260045260246000fd5b634e487b7160e01b600052601160045260246000fd5b6000600182016110e2576110e26110ba565b5060010190565b600082198211156110fc576110fc6110ba565b500190565b60008261111e57634e487b7160e01b600052601260045260246000fd5b500690565b600082821015611135576111356110ba565b500390565b6000816000190483118215151615611154576111546110ba565b50029056fea2646970667358221220122f1829eedba70bbddea48561ad09e36696419dd55cffde88f696810148e5d164736f6c634300080e003360806040523480156200001157600080fd5b5060405162000c1c38038062000c1c8339810160408190526200003491620003aa565b600080546001600160a01b0319166001600160a01b0383161781556040805160a08082018352838252600160208084018290526003848601819052600460608087018290526005608080890182905289519788018a528a8852948701529685015294830191909152810192909252620000ae9291620002b6565b6040805160a08082018352600180835260046020808501829052848601919091526000606080860182905260056080808801829052885196870189529286529285018490526003968501969096529483015260069382019390935262000116929190620002b6565b6040805160a0808201835260028083526003602080850182905260018587015260608086018390526000608080880182905288519687018952908652918501849052958401919091526005948301949094526006938201939093526200017e929190620002b6565b6040805160a0808201835260038083526001602080850182905284860183905260608086018390526002608080880191909152875195860188526000865291850192909252948301829052600490830152600693820193909352620001e5929190620002b6565b6040805160a08082018352600480835260026020808501829052600585870181905260006060808801829052608080890187905289519788018a5291875292860184905296850192909252600390840152938201939093526200024a929190620002b6565b6040805160a080820183526005808352600060208085018290526003858701526004606080870191909152600160808088018290528851968701895293865291850182905295840152938201819052600693820193909352620002af929190620002b6565b5062000436565b60005b60058160ff161015620003a45760006040518060400160405280858460ff1660058110620002eb57620002eb620003dc565b602002015160ff168152602001848460ff1660058110620003105762000310620003dc565b602002015160ff169052905060036000866007811115620003355762000335620003f2565b6007811115620003495762000349620003f2565b81526020808201929092526040016000908120805460018101825590825290829020835191018054939092015160ff9081166101000261ffff19909416911617919091179055806200039b8162000408565b915050620002b9565b50505050565b600060208284031215620003bd57600080fd5b81516001600160a01b0381168114620003d557600080fd5b9392505050565b634e487b7160e01b600052603260045260246000fd5b634e487b7160e01b600052602160045260246000fd5b600060ff821660ff81036200042d57634e487b7160e01b600052601160045260246000fd5b60010192915050565b6107d680620004466000396000f3fe608060405234801561001057600080fd5b506004361061007d5760003560e01c80636fee2fe41161005b5780636fee2fe4146100f55780638303dde9146101085780638306b55014610135578063d0399bb81461014857600080fd5b806322fe0ea3146100825780632b7ac3f3146100b557806369dbbc28146100e0575b600080fd5b6100a261009036600461042c565b60016020526000908152604090205481565b6040519081526020015b60405180910390f35b6000546100c8906001600160a01b031681565b6040516001600160a01b0390911681526020016100ac565b6100f36100ee366004610445565b61015b565b005b6100c86101033660046104ca565b610242565b61011b6101163660046104ec565b61027a565b6040805160ff9384168152929091166020830152016100ac565b6100f36101433660046105cf565b6102b5565b6100f361015636600461042c565b610373565b600084815260016020526040902054156101b35760405162461bcd60e51b815260206004820152601460248201527311d85b5948185b1c9958591e481cdd185c9d195960621b60448201526064015b60405180910390fd5b60008481526001602052604090208190558180158015906101d5575060048111155b6102215760405162461bcd60e51b815260206004820152601860248201527f496e76616c6964206e756d626572206f66206167656e7473000000000000000060448201526064016101aa565b600085815260026020526040902061023a90858561039a565b505050505050565b6002602052816000526040600020818154811061025e57600080fd5b6000918252602090912001546001600160a01b03169150829050565b6003602052816000526040600020818154811061029657600080fd5b60009182526020909120015460ff808216935061010090910416905082565b600054604051636490cd3d60e11b81526001600160a01b039091169063c9219a7a906102eb9087908790879087906004016106d0565b602060405180830381865afa158015610308573d6000803e3d6000fd5b505050506040513d601f19601f8201168201806040525081019061032c9190610777565b61036d5760405162461bcd60e51b81526020600482015260126024820152713b32b934b334b1b0ba34b7b71032b93937b960711b60448201526064016101aa565b50505050565b600081815260016020908152604080832083905560029091528120610397916103fd565b50565b8280548282559060005260206000209081019282156103ed579160200282015b828111156103ed5781546001600160a01b0319166001600160a01b038435161782556020909201916001909101906103ba565b506103f9929150610417565b5090565b508054600082559060005260206000209081019061039791905b5b808211156103f95760008155600101610418565b60006020828403121561043e57600080fd5b5035919050565b6000806000806060858703121561045b57600080fd5b84359350602085013567ffffffffffffffff8082111561047a57600080fd5b818701915087601f83011261048e57600080fd5b81358181111561049d57600080fd5b8860208260051b85010111156104b257600080fd5b95986020929092019750949560400135945092505050565b600080604083850312156104dd57600080fd5b50508035926020909101359150565b600080604083850312156104ff57600080fd5b82356008811061050e57600080fd5b946020939093013593505050565b634e487b7160e01b600052604160045260246000fd5b6040805190810167ffffffffffffffff811182821017156105555761055561051c565b60405290565b604051610100810167ffffffffffffffff811182821017156105555761055561051c565b600082601f83011261059057600080fd5b610598610532565b8060408401858111156105aa57600080fd5b845b818110156105c45780358452602093840193016105ac565b509095945050505050565b6000806000806102008086880312156105e757600080fd5b6105f1878761057f565b9450604087605f88011261060457600080fd5b61060c610532565b8060c089018a81111561061e57600080fd5b838a015b81811015610643576106348c8261057f565b84526020909301928401610622565b508197506106518b8261057f565b9650505050508661011f87011261066757600080fd5b61066f61055b565b90860190808883111561068157600080fd5b61010088015b8381101561069f578035835260209283019201610687565b509598949750929550505050565b8060005b600281101561036d5781518452602093840193909101906001016106b1565b61020081016106df82876106ad565b60408083018660005b60028082106106f75750610732565b82518460005b8381101561071b5782518252602092830192909101906001016106fd565b5050509284019250602091909101906001016106e8565b5050505061074360c08301856106ad565b61010082018360005b600881101561076b57815183526020928301929091019060010161074c565b50505095945050505050565b60006020828403121561078957600080fd5b8151801515811461079957600080fd5b939250505056fea26469706673582212209175207e13a43b65ebb49c2d3c419e9ca00c42a36ff504779359bc1b346692f564736f6c634300080e0033a2646970667358221220ea11cb4da08cfa2b50e6371162ad72af82b1a919a1ff43a2b6b75662a107e52c64736f6c634300080e0033",
    "linkReferences": {}
  },
  "methodIdentifiers": {
    "setUp()": "0a9254e4",
    "testGameCreation()": "af9b0944"
  },
  "id": 2
}