{
  "abi": [
    {
      "inputs": [
        {
          "internalType": "uint256[2]",
          "name": "a",
          "type": "uint256[2]"
        },
        {
          "internalType": "uint256[2][2]",
          "name": "b",
          "type": "uint256[2][2]"
        },
        {
          "internalType": "uint256[2]",
          "name": "c",
          "type": "uint256[2]"
        },
        {
          "internalType": "uint256[27]",
          "name": "input",
          "type": "uint256[27]"
        }
      ],
      "name": "verifyProof",
      "outputs": [
        {
          "internalType": "bool",
          "name": "r",
          "type": "bool"
        }
      ],
      "stateMutability": "view",
      "type": "function"
    }
  ],
  "bytecode": {
    "object": "0x608060405234801561001057600080fd5b50611d7e806100206000396000f3fe608060405234801561001057600080fd5b506004361061002b5760003560e01c80633564a25a14610030575b600080fd5b61004361003e366004611bb5565b610057565b604051901515815260200160405180910390f35b60006100616119c8565b604080518082018252875181526020808901518183015290835281516080810183528751518184019081528851830151606083015281528251808401845288830180515182525183015181840152818301528382015281518083018352865181528682015181830152838301528151601b8082526103808201909352600092909182016103608036833701905050905060005b601b811015610143578481601b811061010f5761010f611c93565b602002015182828151811061012657610126611c93565b60209081029190910101528061013b81611cbf565b9150506100f4565b5061014e818361016f565b60000361016057600192505050610167565b6000925050505b949350505050565b60007f30644e72e131a029b85045b68181585d2833e84879b9709143e1f593f00000018161019b610366565b9050806080015151855160016101b19190611cd8565b146101f85760405162461bcd60e51b81526020600482015260126024820152711d995c9a599a595c8b5898590b5a5b9c1d5d60721b60448201526064015b60405180910390fd5b604080518082019091526000808252602082018190525b86518110156102e9578387828151811061022b5761022b611c93565b6020026020010151106102805760405162461bcd60e51b815260206004820152601f60248201527f76657269666965722d6774652d736e61726b2d7363616c61722d6669656c640060448201526064016101ef565b6102d5826102d085608001518460016102999190611cd8565b815181106102a9576102a9611c93565b60200260200101518a85815181106102c3576102c3611c93565b6020026020010151611317565b6113ad565b9150806102e181611cbf565b91505061020f565b5061031281836080015160008151811061030557610305611c93565b60200260200101516113ad565b90506103486103248660000151611446565b8660200151846000015185602001518587604001518b6040015189606001516114e5565b6103585760019350505050610360565b600093505050505b92915050565b61036e611a19565b6040805180820182527f2d4d9aa7e302d9df41749d5507949d05dbea33fbb16c643b22f599a2be6df2e281527f14bedd503c37ceb061d8ec60209fe345ce89830a19230301f076caff004d19266020808301919091529083528151608080820184527f0967032fcbf776d1afc985f88877f182d38480a653f2decaa9794cbc3bf3060c8285019081527f0e187847ad4c798374d0d6732bf501847dd68bc0e071241e0213bc7fc13db7ab606080850191909152908352845180860186527f304cfbd1e08a704a99f5e847d93f8c3caafddec46b7a0d379da69a4d112346a781527f1739c1b1a457a8c7313123d24d2f9192f896b7c63eea05a9d57f06547ad0cec8818601528385015285840192909252835180820185527f198e9393920d483a7260bfb731fb5d25f1aa493335a9e71297e485b7aef312c28186019081527f1800deef121f1e76426a00665e5c4479674322d4f75edadd46debd5cd992f6ed828501528152845180860186527f090689d0585ff075ec9e99ad690c3395bc4b313370b38ef355acdadcd122975b81527f12c85ea5db8c6deb4aab71808dcb408fe3d1e7690c43d37b4ce6cc0166fa7daa818601528185015285850152835190810184527f117594e9b50f666b2f983009efcde0f778839be339b733741d54351acc50734c8185019081527f19a8c156403ca45958451e1527f7b25a93ea0763b47a33e27c8f9990b29715d0828401528152835180850185527f224c666121248b494317e3e01da5d47d710ac2428d5b7b7d54c504c8e4bfff0d81527f2cd6da34509661818000a694d9096e4848785a2901250848719c86bb0456082a8185015281840152908401528151601c8082526103a08201909352919082015b60408051808201909152600080825260208201528152602001906001900390816105ea57505060808201908152604080518082019091527e2a12ae214c132a79894a30442556b6814c93391593c6cf6d325268d44c8f5081527f1c8a20c5f699e778aa4618420edbcf1c64d3163f4ebe9c060910e7e166b9fa7f60208201529051805160009061067c5761067c611c93565b602002602001018190525060405180604001604052807f1c33168bd054d9e61465112c6198ca8d2741472105b79099d0ca76d4fe7ad07081526020017f269598fe07125da6ed69c140329f4ed7041ae68e66aad971fd0dd427ba52d15f81525081608001516001815181106106f3576106f3611c93565b602002602001018190525060405180604001604052807f2e6bf937125164a7e96dc04deb89a85984eb052c8c750ef2a7435fdade2c1eae81526020017f13e29e10f3493eab9e1d01d2c73cd01481ea486d4c0156bd98a934f13c149405815250816080015160028151811061076a5761076a611c93565b602002602001018190525060405180604001604052807f120c23a9674515fe7b8a0ac2a9dd2d48f0e0c4c14198a19deab8dbd67309c5ba81526020017f15b3d6551570e7a505a0917e369a36aa1753b00c933272e26a455b888b833c4381525081608001516003815181106107e1576107e1611c93565b602002602001018190525060405180604001604052807f1b59e3766cd84349820ff491293deba585ec699dec3a1c2991cc092417fd568881526020017f0b51d010d72d5ba42fb4c51ce9ae5872930b153adf77325884c67ff1f144bd15815250816080015160048151811061085857610858611c93565b602002602001018190525060405180604001604052807f28cf911c3f1f0ae4154fc9245e46a2320ddad4b308dfba64da2a8e2170084b1581526020017f252961d128099efc6a4c590a8d9946c544655820df0b490688255f9d4bbfbb6481525081608001516005815181106108cf576108cf611c93565b602002602001018190525060405180604001604052807f0981fbc51099d94dce1e677251c1bf54f3366edde020793a0e0be064204071ef81526020017f07937b94ff2284ff7e1e4384f20b6693554ea6aa5aa7994fcf148c18d752858d815250816080015160068151811061094657610946611c93565b602002602001018190525060405180604001604052807f1c4f7225d4822f618413f58325516ccc303df1ea0b030f6d03972f0eb912b59a81526020017f0c2032421a3ee6d7ce997043e909f81d217991ab1a9154525d9523034fd3d35481525081608001516007815181106109bd576109bd611c93565b602002602001018190525060405180604001604052807f084b6ade0476e55b9615b0080d209c6713873b742dfde33f5809d0e824703c8b81526020017f1c343a43121b817878bbbba54928475021df7d6e5b1acab56cd88b4fea19cd828152508160800151600881518110610a3457610a34611c93565b602002602001018190525060405180604001604052807f1fc0fed95a20021b829e6cbca7e67d9e76ec40810aae5a853e14dc137c7f013a81526020017f1f9cbf0c37c1eaff6ec82a8f53d12de425265275a787d244ec3df2593b5661e88152508160800151600981518110610aab57610aab611c93565b602002602001018190525060405180604001604052807f2005fc16821683ddde6597e8d0091e440290a226c4bcad44270896948b0143b881526020017f0b3defa716c3e19d671bc4b61a5cad6627cb64716bc729fb92c3dca891ca675b8152508160800151600a81518110610b2257610b22611c93565b602002602001018190525060405180604001604052807f18bd42828c471c7535af37c604605347ac3b20c34473c58ac131e995605f463781526020017f04d73b9d6a42a4d7194677ddce45810c7dcdc9739c29cd74fc8969eda3c9c3bd8152508160800151600b81518110610b9957610b99611c93565b602002602001018190525060405180604001604052807f19d82e8f338f1d978224ba74938d1ad416cc44022b9ffc424f37f72a416bd96981526020017f2ebdbc10eae702235798f2f5978f90225b8c946633ddacb0c57bb1d0ec6cc2788152508160800151600c81518110610c1057610c10611c93565b602002602001018190525060405180604001604052807f13197979a820afca347e917af4ab22d95a71b1c267143f234efde8bfa429a26681526020017f229ba1eacad2869d85623584e84eb0a921851c7e9dff3920505e8997b1a29af48152508160800151600d81518110610c8757610c87611c93565b602002602001018190525060405180604001604052807f023f46e05c24a62c34cbfb10d73a0c55c821eae32bbc4b3a50a8de560a761c4981526020017f2a901ade1e47a0f9129fdf756e4aa71b78ea35462494d0d24316db7ca7fd44018152508160800151600e81518110610cfe57610cfe611c93565b602002602001018190525060405180604001604052807f256079625713e17cbfed7dedf0b697dff88b61903b567103680cf64b1419233f81526020017f2cee2107249b7f73d808095708412936d8eae1832d592af314410643ca88526d8152508160800151600f81518110610d7557610d75611c93565b602002602001018190525060405180604001604052807f26446d42a5daf577d9123c0ee731ab6daffb1e51e0aa4253ff25397c56827d3f81526020017f0a7c185768bcd9000db9759c62986423dad4f2dbd4f7bd79d054cfee9aa4ea728152508160800151601081518110610dec57610dec611c93565b602002602001018190525060405180604001604052807f2d5cce00bc1cd90b32f3258e6dddfab669accc4b710f5d751df9f7d8004ecfb381526020017f1f0f98fc27ee1024c52a18f6eb1d6fa90874befd477d3eecaf62203acea91b4a8152508160800151601181518110610e6357610e63611c93565b602002602001018190525060405180604001604052807f013783dc79a8fb242e967fa59bdafe5c66b59ca837c661bc7cdf78360ba1304d81526020017f2ea004e4c4d523bf7a17f17c8690d9f8658e76902608ddf781ba686eb8a8d6698152508160800151601281518110610eda57610eda611c93565b602002602001018190525060405180604001604052807f24290684883907456ac2c0322c6f3be9afdd6abe05171ea65245fd2b83342a5a81526020017f06319d43ae52098972c50e51d83127cd8d52125c55dc8d10a2714ad752ab240d8152508160800151601381518110610f5157610f51611c93565b602002602001018190525060405180604001604052807f182117a7282cbc604298b77c0e7607412ea2f1803e4f384a0ba2c72058196eeb81526020017f304e65befd8af47d995f1364e86ebfff7b7cf0d30ac269f812f97f029397fc808152508160800151601481518110610fc857610fc8611c93565b602002602001018190525060405180604001604052807f2fb22ed0a89b9d196e1c618b606f45e30476310a74c95e2eb6d4aa7ceb50d12a81526020017f1756ce1dd917ff563ff321d30835a58e00f72e82beaba83b6b32f4c1362c22a6815250816080015160158151811061103f5761103f611c93565b602002602001018190525060405180604001604052807f2c7a7d5385263bed196efffd6951c5a35a8e4494e0635611aae036785f53cce881526020017f238a3376cf49a9cd7248c59557d983a74219a1812f953f9540161e688b8cec4281525081608001516016815181106110b6576110b6611c93565b602002602001018190525060405180604001604052807f296776189ad2d9803804bd4ba44c78c6a5ffa04ddc3c2d4f72109cf7ca38405781526020017f04d8bafe3210f4ab5c9ae3014647a4b32f2b78a1f6156d1cd39237662e813878815250816080015160178151811061112d5761112d611c93565b602002602001018190525060405180604001604052807f1ae4f3950948382e170a6f6bc377269c1dabd3ddad39a1e9fcece8a4d5c4eca481526020017f2816695606d644eb92f55e3b44c263041d2a7a04a5ef9f18bf197bc22a4334a481525081608001516018815181106111a4576111a4611c93565b602002602001018190525060405180604001604052807f0df3df54f7d4467daa5f75f545707c0a162cd4ea1a0f0566540ad33650b344fe81526020017f0c9b3b5c732f42815cca3fc1c91a2ab8116f35c1304646169f0f3bde7d87ef84815250816080015160198151811061121b5761121b611c93565b602002602001018190525060405180604001604052807f2538b5cff0525ac79f6504fd588111aa096daba76d70bba557bf3335d061415181526020017f2a06d2727e8e67a5f55d122f0c6f642b76140ed462e5a31caefff397f2bf0a548152508160800151601a8151811061129257611292611c93565b602002602001018190525060405180604001604052807f2a53ec88b499232e2bac41b58a42dace01ecbd047da8161658bb350adc8618d581526020017f17cf192a973642c9c9c09a3607db469270e0189a065a535842956e3ae72f694c8152508160800151601b8151811061130957611309611c93565b602002602001018190525090565b6040805180820190915260008082526020820152611333611a6a565b835181526020808501519082015260408101839052600060608360808460076107d05a03fa9050808061136257fe5b50806113a55760405162461bcd60e51b81526020600482015260126024820152711c185a5c9a5b99cb5b5d5b0b59985a5b195960721b60448201526064016101ef565b505092915050565b60408051808201909152600080825260208201526113c9611a88565b8351815260208085015181830152835160408301528301516060808301919091526000908360c08460066107d05a03fa9050808061140357fe5b50806113a55760405162461bcd60e51b81526020600482015260126024820152711c185a5c9a5b99cb5859190b59985a5b195960721b60448201526064016101ef565b604080518082019091526000808252602082015281517f30644e72e131a029b85045b68181585d97816a916871ca8d3c208c16d87cfd479015801561148d57506020830151155b156114ad5750506040805180820190915260008082526020820152919050565b6040518060400160405280846000015181526020018285602001516114d29190611cf0565b6114dc9084611d12565b90529392505050565b60408051600480825260a08201909252600091829190816020015b604080518082019091526000808252602082015281526020019060019003908161150057505060408051600480825260a0820190925291925060009190602082015b61154a611aa6565b8152602001906001900390816115425790505090508a8260008151811061157357611573611c93565b6020026020010181905250888260018151811061159257611592611c93565b602002602001018190525086826002815181106115b1576115b1611c93565b602002602001018190525084826003815181106115d0576115d0611c93565b602002602001018190525089816000815181106115ef576115ef611c93565b6020026020010181905250878160018151811061160e5761160e611c93565b6020026020010181905250858160028151811061162d5761162d611c93565b6020026020010181905250838160038151811061164c5761164c611c93565b60200260200101819052506116618282611670565b9b9a5050505050505050505050565b600081518351146116bc5760405162461bcd60e51b81526020600482015260166024820152751c185a5c9a5b99cb5b195b99dd1a1ccb59985a5b195960521b60448201526064016101ef565b825160006116cb826006611d29565b905060008167ffffffffffffffff8111156116e8576116e8611b02565b604051908082528060200260200182016040528015611711578160200160208202803683370190505b50905060005b8381101561194c5786818151811061173157611731611c93565b6020026020010151600001518282600661174b9190611d29565b611756906000611cd8565b8151811061176657611766611c93565b60200260200101818152505086818151811061178457611784611c93565b6020026020010151602001518282600661179e9190611d29565b6117a9906001611cd8565b815181106117b9576117b9611c93565b6020026020010181815250508581815181106117d7576117d7611c93565b60209081029190910101515151826117f0836006611d29565b6117fb906002611cd8565b8151811061180b5761180b611c93565b60200260200101818152505085818151811061182957611829611c93565b60209081029190910181015151015182611844836006611d29565b61184f906003611cd8565b8151811061185f5761185f611c93565b60200260200101818152505085818151811061187d5761187d611c93565b60200260200101516020015160006002811061189b5761189b611c93565b6020020151826118ac836006611d29565b6118b7906004611cd8565b815181106118c7576118c7611c93565b6020026020010181815250508581815181106118e5576118e5611c93565b60200260200101516020015160016002811061190357611903611c93565b602002015182611914836006611d29565b61191f906005611cd8565b8151811061192f5761192f611c93565b60209081029190910101528061194481611cbf565b915050611717565b50611955611ac6565b6000602082602086026020860160086107d05a03fa9050808061197457fe5b50806119ba5760405162461bcd60e51b81526020600482015260156024820152741c185a5c9a5b99cb5bdc18dbd9194b59985a5b1959605a1b60448201526064016101ef565b505115159695505050505050565b6040805160a0810190915260006060820181815260808301919091528152602081016119f2611aa6565b8152602001611a14604051806040016040528060008152602001600081525090565b905290565b6040805160e08101909152600060a0820181815260c0830191909152815260208101611a43611aa6565b8152602001611a50611aa6565b8152602001611a5d611aa6565b8152602001606081525090565b60405180606001604052806003906020820280368337509192915050565b60405180608001604052806004906020820280368337509192915050565b6040518060400160405280611ab9611ae4565b8152602001611a14611ae4565b60405180602001604052806001906020820280368337509192915050565b60405180604001604052806002906020820280368337509192915050565b634e487b7160e01b600052604160045260246000fd5b6040805190810167ffffffffffffffff81118282101715611b3b57611b3b611b02565b60405290565b604051610360810167ffffffffffffffff81118282101715611b3b57611b3b611b02565b600082601f830112611b7657600080fd5b611b7e611b18565b806040840185811115611b9057600080fd5b845b81811015611baa578035845260209384019301611b92565b509095945050505050565b600080600080610460808688031215611bcd57600080fd5b611bd78787611b65565b9450604087605f880112611bea57600080fd5b611bf2611b18565b8060c089018a811115611c0457600080fd5b838a015b81811015611c2957611c1a8c82611b65565b84526020909301928401611c08565b50819750611c378b82611b65565b9650505050508661011f870112611c4d57600080fd5b611c55611b41565b908601908088831115611c6757600080fd5b61010088015b83811015611c85578035835260209283019201611c6d565b509598949750929550505050565b634e487b7160e01b600052603260045260246000fd5b634e487b7160e01b600052601160045260246000fd5b600060018201611cd157611cd1611ca9565b5060010190565b60008219821115611ceb57611ceb611ca9565b500190565b600082611d0d57634e487b7160e01b600052601260045260246000fd5b500690565b600082821015611d2457611d24611ca9565b500390565b6000816000190483118215151615611d4357611d43611ca9565b50029056fea26469706673582212201a7da3465a30449cf2f415f9dce6a1ef5035c058334791ff8060b49d8c6e37bf64736f6c634300080e0033",
    "linkReferences": {}
  },
  "methodIdentifiers": {
    "verifyProof(uint256[2],uint256[2][2],uint256[2],uint256[27])": "3564a25a"
  },
  "id": 0
}