{
  "_format": "hh-sol-artifact-1",
  "contractName": "Game",
  "sourceName": "src/contracts/Game.sol",
  "abi": [
    {
      "inputs": [
        {
          "internalType": "address",
          "name": "_agentAskVerifier",
          "type": "address"
        },
        {
          "internalType": "address",
          "name": "_firstMoveVerifier",
          "type": "address"
        },
        {
          "internalType": "address",
          "name": "_recruiterMoveVerifier",
          "type": "address"
        },
        {
          "internalType": "address",
          "name": "_agentAskNoMatchVerifier",
          "type": "address"
        },
        {
          "internalType": "address",
          "name": "_agentCaptureVerifier",
          "type": "address"
        },
        {
          "internalType": "address",
          "name": "_agentRevealVerifier",
          "type": "address"
        }
      ],
      "stateMutability": "nonpayable",
      "type": "constructor"
    },
    {
      "anonymous": false,
      "inputs": [
        {
          "indexed": true,
          "internalType": "address",
          "name": "agent",
          "type": "address"
        },
        {
          "indexed": false,
          "internalType": "enum Game.Feature",
          "name": "feature",
          "type": "uint8"
        }
      ],
      "name": "AgentAsked",
      "type": "event"
    },
    {
      "anonymous": false,
      "inputs": [
        {
          "indexed": true,
          "internalType": "address",
          "name": "agent",
          "type": "address"
        },
        {
          "components": [
            {
              "internalType": "uint8",
              "name": "x",
              "type": "uint8"
            },
            {
              "internalType": "uint8",
              "name": "y",
              "type": "uint8"
            }
          ],
          "indexed": false,
          "internalType": "struct Game.Position",
          "name": "pos",
          "type": "tuple"
        }
      ],
      "name": "AgentCaptured",
      "type": "event"
    },
    {
      "anonymous": false,
      "inputs": [
        {
          "indexed": true,
          "internalType": "address",
          "name": "agent",
          "type": "address"
        },
        {
          "components": [
            {
              "internalType": "uint8",
              "name": "x",
              "type": "uint8"
            },
            {
              "internalType": "uint8",
              "name": "y",
              "type": "uint8"
            }
          ],
          "indexed": false,
          "internalType": "struct Game.Position",
          "name": "to",
          "type": "tuple"
        }
      ],
      "name": "AgentMoved",
      "type": "event"
    },
    {
      "anonymous": false,
      "inputs": [
        {
          "indexed": true,
          "internalType": "address",
          "name": "agent",
          "type": "address"
        },
        {
          "components": [
            {
              "internalType": "uint8",
              "name": "x",
              "type": "uint8"
            },
            {
              "internalType": "uint8",
              "name": "y",
              "type": "uint8"
            }
          ],
          "indexed": false,
          "internalType": "struct Game.Position",
          "name": "pos",
          "type": "tuple"
        }
      ],
      "name": "AgentRevealed",
      "type": "event"
    },
    {
      "anonymous": false,
      "inputs": [],
      "name": "AskAnswered",
      "type": "event"
    },
    {
      "anonymous": false,
      "inputs": [],
      "name": "CaptureAnswered",
      "type": "event"
    },
    {
      "anonymous": false,
      "inputs": [],
      "name": "RecruiterMoved",
      "type": "event"
    },
    {
      "anonymous": false,
      "inputs": [],
      "name": "RevealAnswered",
      "type": "event"
    },
    {
      "inputs": [
        {
          "internalType": "uint256",
          "name": "gameId",
          "type": "uint256"
        },
        {
          "internalType": "address",
          "name": "agent",
          "type": "address"
        }
      ],
      "name": "addAgent",
      "outputs": [],
      "stateMutability": "nonpayable",
      "type": "function"
    },
    {
      "inputs": [],
      "name": "agentAskNoMatchVerifier",
      "outputs": [
        {
          "internalType": "contract AgentAskNoMatchVerifier",
          "name": "",
          "type": "address"
        }
      ],
      "stateMutability": "view",
      "type": "function"
    },
    {
      "inputs": [
        {
          "internalType": "uint256",
          "name": "gameId",
          "type": "uint256"
        },
        {
          "internalType": "uint256[2]",
          "name": "position",
          "type": "uint256[2]"
        }
      ],
      "name": "agentAskNotify",
      "outputs": [],
      "stateMutability": "nonpayable",
      "type": "function"
    },
    {
      "inputs": [
        {
          "internalType": "uint256",
          "name": "gameId",
          "type": "uint256"
        },
        {
          "internalType": "uint256[2]",
          "name": "a",
          "type": "uint256[2]"
        },
        {
          "internalType": "uint256[2][2]",
          "name": "b",
          "type": "uint256[2][2]"
        },
        {
          "internalType": "uint256[2]",
          "name": "c",
          "type": "uint256[2]"
        },
        {
          "internalType": "uint256[25]",
          "name": "input",
          "type": "uint256[25]"
        }
      ],
      "name": "agentAskRevealNoPosition",
      "outputs": [],
      "stateMutability": "nonpayable",
      "type": "function"
    },
    {
      "inputs": [
        {
          "internalType": "uint256",
          "name": "gameId",
          "type": "uint256"
        },
        {
          "internalType": "uint256[2]",
          "name": "a",
          "type": "uint256[2]"
        },
        {
          "internalType": "uint256[2][2]",
          "name": "b",
          "type": "uint256[2][2]"
        },
        {
          "internalType": "uint256[2]",
          "name": "c",
          "type": "uint256[2]"
        },
        {
          "internalType": "uint256[27]",
          "name": "input",
          "type": "uint256[27]"
        }
      ],
      "name": "agentAskRevealPosition",
      "outputs": [],
      "stateMutability": "nonpayable",
      "type": "function"
    },
    {
      "inputs": [],
      "name": "agentAskVerifier",
      "outputs": [
        {
          "internalType": "contract AgentAskVerifier",
          "name": "",
          "type": "address"
        }
      ],
      "stateMutability": "view",
      "type": "function"
    },
    {
      "inputs": [
        {
          "internalType": "uint256",
          "name": "gameId",
          "type": "uint256"
        },
        {
          "internalType": "uint256[2]",
          "name": "a",
          "type": "uint256[2]"
        },
        {
          "internalType": "uint256[2][2]",
          "name": "b",
          "type": "uint256[2][2]"
        },
        {
          "internalType": "uint256[2]",
          "name": "c",
          "type": "uint256[2]"
        },
        {
          "internalType": "uint256[4]",
          "name": "input",
          "type": "uint256[4]"
        }
      ],
      "name": "agentCapture",
      "outputs": [],
      "stateMutability": "nonpayable",
      "type": "function"
    },
    {
      "inputs": [
        {
          "internalType": "uint256",
          "name": "gameId",
          "type": "uint256"
        },
        {
          "internalType": "uint256[2]",
          "name": "position",
          "type": "uint256[2]"
        }
      ],
      "name": "agentCaptureNotify",
      "outputs": [],
      "stateMutability": "nonpayable",
      "type": "function"
    },
    {
      "inputs": [],
      "name": "agentCaptureVerifier",
      "outputs": [
        {
          "internalType": "contract AgentCaptureVerifier",
          "name": "",
          "type": "address"
        }
      ],
      "stateMutability": "view",
      "type": "function"
    },
    {
      "inputs": [
        {
          "internalType": "uint256",
          "name": "gameId",
          "type": "uint256"
        },
        {
          "internalType": "uint8",
          "name": "x",
          "type": "uint8"
        },
        {
          "internalType": "uint8",
          "name": "y",
          "type": "uint8"
        }
      ],
      "name": "agentMove",
      "outputs": [],
      "stateMutability": "nonpayable",
      "type": "function"
    },
    {
      "inputs": [
        {
          "internalType": "uint256",
          "name": "",
          "type": "uint256"
        },
        {
          "internalType": "address",
          "name": "",
          "type": "address"
        }
      ],
      "name": "agentPositions",
      "outputs": [
        {
          "internalType": "uint8",
          "name": "x",
          "type": "uint8"
        },
        {
          "internalType": "uint8",
          "name": "y",
          "type": "uint8"
        }
      ],
      "stateMutability": "view",
      "type": "function"
    },
    {
      "inputs": [
        {
          "internalType": "uint256",
          "name": "gameId",
          "type": "uint256"
        },
        {
          "internalType": "uint256[2]",
          "name": "a",
          "type": "uint256[2]"
        },
        {
          "internalType": "uint256[2][2]",
          "name": "b",
          "type": "uint256[2][2]"
        },
        {
          "internalType": "uint256[2]",
          "name": "c",
          "type": "uint256[2]"
        },
        {
          "internalType": "uint256[4]",
          "name": "input",
          "type": "uint256[4]"
        }
      ],
      "name": "agentReveal",
      "outputs": [],
      "stateMutability": "nonpayable",
      "type": "function"
    },
    {
      "inputs": [
        {
          "internalType": "uint256",
          "name": "gameId",
          "type": "uint256"
        },
        {
          "internalType": "uint256[2]",
          "name": "position",
          "type": "uint256[2]"
        }
      ],
      "name": "agentRevealNotify",
      "outputs": [],
      "stateMutability": "nonpayable",
      "type": "function"
    },
    {
      "inputs": [],
      "name": "agentRevealVerifier",
      "outputs": [
        {
          "internalType": "contract AgentRevealVerifier",
          "name": "",
          "type": "address"
        }
      ],
      "stateMutability": "view",
      "type": "function"
    },
    {
      "inputs": [
        {
          "internalType": "uint256",
          "name": "",
          "type": "uint256"
        },
        {
          "internalType": "uint256",
          "name": "",
          "type": "uint256"
        }
      ],
      "name": "agents",
      "outputs": [
        {
          "internalType": "address",
          "name": "",
          "type": "address"
        }
      ],
      "stateMutability": "view",
      "type": "function"
    },
    {
      "inputs": [
        {
          "internalType": "uint256",
          "name": "gameId",
          "type": "uint256"
        }
      ],
      "name": "agentsNeeded",
      "outputs": [
        {
          "internalType": "bool",
          "name": "",
          "type": "bool"
        }
      ],
      "stateMutability": "view",
      "type": "function"
    },
    {
      "inputs": [
        {
          "internalType": "uint256",
          "name": "",
          "type": "uint256"
        }
      ],
      "name": "currentAgentAsk",
      "outputs": [
        {
          "internalType": "enum Game.Feature",
          "name": "",
          "type": "uint8"
        }
      ],
      "stateMutability": "view",
      "type": "function"
    },
    {
      "inputs": [
        {
          "internalType": "uint256",
          "name": "",
          "type": "uint256"
        }
      ],
      "name": "currentAgentCapture",
      "outputs": [
        {
          "internalType": "uint8",
          "name": "x",
          "type": "uint8"
        },
        {
          "internalType": "uint8",
          "name": "y",
          "type": "uint8"
        }
      ],
      "stateMutability": "view",
      "type": "function"
    },
    {
      "inputs": [
        {
          "internalType": "uint256",
          "name": "",
          "type": "uint256"
        }
      ],
      "name": "currentAgentReveal",
      "outputs": [
        {
          "internalType": "uint8",
          "name": "x",
          "type": "uint8"
        },
        {
          "internalType": "uint8",
          "name": "y",
          "type": "uint8"
        }
      ],
      "stateMutability": "view",
      "type": "function"
    },
    {
      "inputs": [
        {
          "internalType": "uint256",
          "name": "gameId",
          "type": "uint256"
        }
      ],
      "name": "endGame",
      "outputs": [],
      "stateMutability": "nonpayable",
      "type": "function"
    },
    {
      "inputs": [
        {
          "internalType": "enum Game.Feature",
          "name": "",
          "type": "uint8"
        },
        {
          "internalType": "uint256",
          "name": "",
          "type": "uint256"
        }
      ],
      "name": "features",
      "outputs": [
        {
          "internalType": "uint8",
          "name": "x",
          "type": "uint8"
        },
        {
          "internalType": "uint8",
          "name": "y",
          "type": "uint8"
        }
      ],
      "stateMutability": "view",
      "type": "function"
    },
    {
      "inputs": [],
      "name": "firstMoveVerifier",
      "outputs": [
        {
          "internalType": "contract StartingMoveVerifier",
          "name": "",
          "type": "address"
        }
      ],
      "stateMutability": "view",
      "type": "function"
    },
    {
      "inputs": [
        {
          "internalType": "uint256",
          "name": "",
          "type": "uint256"
        }
      ],
      "name": "gameStatuses",
      "outputs": [
        {
          "internalType": "enum Game.GameStatus",
          "name": "",
          "type": "uint8"
        }
      ],
      "stateMutability": "view",
      "type": "function"
    },
    {
      "inputs": [
        {
          "internalType": "uint256",
          "name": "",
          "type": "uint256"
        }
      ],
      "name": "hasAsk",
      "outputs": [
        {
          "internalType": "bool",
          "name": "",
          "type": "bool"
        }
      ],
      "stateMutability": "view",
      "type": "function"
    },
    {
      "inputs": [
        {
          "internalType": "uint256",
          "name": "",
          "type": "uint256"
        }
      ],
      "name": "hasCapture",
      "outputs": [
        {
          "internalType": "bool",
          "name": "",
          "type": "bool"
        }
      ],
      "stateMutability": "view",
      "type": "function"
    },
    {
      "inputs": [
        {
          "internalType": "uint256",
          "name": "",
          "type": "uint256"
        }
      ],
      "name": "hasReveal",
      "outputs": [
        {
          "internalType": "bool",
          "name": "",
          "type": "bool"
        }
      ],
      "stateMutability": "view",
      "type": "function"
    },
    {
      "inputs": [
        {
          "internalType": "uint256",
          "name": "a",
          "type": "uint256"
        },
        {
          "internalType": "uint256",
          "name": "b",
          "type": "uint256"
        }
      ],
      "name": "min",
      "outputs": [
        {
          "internalType": "uint256",
          "name": "",
          "type": "uint256"
        }
      ],
      "stateMutability": "pure",
      "type": "function"
    },
    {
      "inputs": [
        {
          "internalType": "uint256",
          "name": "",
          "type": "uint256"
        },
        {
          "internalType": "uint256",
          "name": "",
          "type": "uint256"
        }
      ],
      "name": "movesHashes",
      "outputs": [
        {
          "internalType": "uint256",
          "name": "",
          "type": "uint256"
        }
      ],
      "stateMutability": "view",
      "type": "function"
    },
    {
      "inputs": [],
      "name": "nextGameId",
      "outputs": [
        {
          "internalType": "uint256",
          "name": "",
          "type": "uint256"
        }
      ],
      "stateMutability": "view",
      "type": "function"
    },
    {
      "inputs": [
        {
          "internalType": "uint256",
          "name": "gameId",
          "type": "uint256"
        }
      ],
      "name": "numberOfAgents",
      "outputs": [
        {
          "internalType": "uint256",
          "name": "",
          "type": "uint256"
        }
      ],
      "stateMutability": "view",
      "type": "function"
    },
    {
      "inputs": [
        {
          "internalType": "uint256",
          "name": "gameId",
          "type": "uint256"
        }
      ],
      "name": "numberOfRecruiterMoves",
      "outputs": [
        {
          "internalType": "uint256",
          "name": "",
          "type": "uint256"
        }
      ],
      "stateMutability": "view",
      "type": "function"
    },
    {
      "inputs": [
        {
          "internalType": "uint256",
          "name": "gameId",
          "type": "uint256"
        }
      ],
      "name": "openGame",
      "outputs": [],
      "stateMutability": "nonpayable",
      "type": "function"
    },
    {
      "inputs": [
        {
          "internalType": "uint256",
          "name": "gameId",
          "type": "uint256"
        },
        {
          "internalType": "uint256",
          "name": "moveHash",
          "type": "uint256"
        },
        {
          "internalType": "uint256[2]",
          "name": "a",
          "type": "uint256[2]"
        },
        {
          "internalType": "uint256[2][2]",
          "name": "b",
          "type": "uint256[2][2]"
        },
        {
          "internalType": "uint256[2]",
          "name": "c",
          "type": "uint256[2]"
        },
        {
          "internalType": "uint256[2]",
          "name": "input",
          "type": "uint256[2]"
        }
      ],
      "name": "recruiterFirstMove",
      "outputs": [],
      "stateMutability": "nonpayable",
      "type": "function"
    },
    {
      "inputs": [
        {
          "internalType": "uint256",
          "name": "gameId",
          "type": "uint256"
        },
        {
          "internalType": "uint256",
          "name": "moveHash",
          "type": "uint256"
        },
        {
          "internalType": "uint256[2]",
          "name": "a",
          "type": "uint256[2]"
        },
        {
          "internalType": "uint256[2][2]",
          "name": "b",
          "type": "uint256[2][2]"
        },
        {
          "internalType": "uint256[2]",
          "name": "c",
          "type": "uint256[2]"
        },
        {
          "internalType": "uint256[4]",
          "name": "input",
          "type": "uint256[4]"
        }
      ],
      "name": "recruiterMove",
      "outputs": [],
      "stateMutability": "nonpayable",
      "type": "function"
    },
    {
      "inputs": [
        {
          "internalType": "uint256",
          "name": "gameId",
          "type": "uint256"
        },
        {
          "internalType": "uint256",
          "name": "moveHash",
          "type": "uint256"
        },
        {
          "internalType": "uint256[2]",
          "name": "a",
          "type": "uint256[2]"
        },
        {
          "internalType": "uint256[2][2]",
          "name": "b",
          "type": "uint256[2][2]"
        },
        {
          "internalType": "uint256[2]",
          "name": "c",
          "type": "uint256[2]"
        },
        {
          "internalType": "uint256[4]",
          "name": "input",
          "type": "uint256[4]"
        }
      ],
      "name": "recruiterMoveInitial",
      "outputs": [],
      "stateMutability": "nonpayable",
      "type": "function"
    },
    {
      "inputs": [],
      "name": "recruiterMoveVerifier",
      "outputs": [
        {
          "internalType": "contract RecruiterMoveVerifier",
          "name": "",
          "type": "address"
        }
      ],
      "stateMutability": "view",
      "type": "function"
    },
    {
      "inputs": [
        {
          "internalType": "uint256",
          "name": "",
          "type": "uint256"
        }
      ],
      "name": "recruiters",
      "outputs": [
        {
          "internalType": "address",
          "name": "",
          "type": "address"
        }
      ],
      "stateMutability": "view",
      "type": "function"
    },
    {
      "inputs": [
        {
          "internalType": "uint256",
          "name": "",
          "type": "uint256"
        }
      ],
      "name": "rounds",
      "outputs": [
        {
          "internalType": "uint256",
          "name": "number",
          "type": "uint256"
        },
        {
          "internalType": "bool",
          "name": "recruiterMoved",
          "type": "bool"
        },
        {
          "internalType": "uint256",
          "name": "numberOfAgentsActed",
          "type": "uint256"
        }
      ],
      "stateMutability": "view",
      "type": "function"
    },
    {
      "inputs": [
        {
          "internalType": "uint256",
          "name": "gameId",
          "type": "uint256"
        },
        {
          "internalType": "address",
          "name": "recruiter",
          "type": "address"
        }
      ],
      "name": "setRecruiter",
      "outputs": [],
      "stateMutability": "nonpayable",
      "type": "function"
    },
    {
      "inputs": [
        {
          "internalType": "uint256",
          "name": "gameId",
          "type": "uint256"
        }
      ],
      "name": "startGame",
      "outputs": [],
      "stateMutability": "nonpayable",
      "type": "function"
    },
    {
      "inputs": [
        {
          "internalType": "uint256",
          "name": "",
          "type": "uint256"
        },
        {
          "internalType": "uint256",
          "name": "",
          "type": "uint256"
        },
        {
          "internalType": "uint256",
          "name": "",
          "type": "uint256"
        }
      ],
      "name": "tokens",
      "outputs": [
        {
          "internalType": "uint256",
          "name": "number",
          "type": "uint256"
        },
        {
          "internalType": "bool",
          "name": "numberRevelead",
          "type": "bool"
        },
        {
          "internalType": "bool",
          "name": "revealed",
          "type": "bool"
        }
      ],
      "stateMutability": "view",
      "type": "function"
    }
  ],
  "bytecode": "0x60806040523480156200001157600080fd5b506040516200657e3803806200657e833981810160405281019062000037919062000887565b856000806101000a81548173ffffffffffffffffffffffffffffffffffffffff021916908373ffffffffffffffffffffffffffffffffffffffff16021790555084600460006101000a81548173ffffffffffffffffffffffffffffffffffffffff021916908373ffffffffffffffffffffffffffffffffffffffff16021790555083600560006101000a81548173ffffffffffffffffffffffffffffffffffffffff021916908373ffffffffffffffffffffffffffffffffffffffff16021790555082600160006101000a81548173ffffffffffffffffffffffffffffffffffffffff021916908373ffffffffffffffffffffffffffffffffffffffff16021790555081600260006101000a81548173ffffffffffffffffffffffffffffffffffffffff021916908373ffffffffffffffffffffffffffffffffffffffff16021790555080600360006101000a81548173ffffffffffffffffffffffffffffffffffffffff021916908373ffffffffffffffffffffffffffffffffffffffff1602179055506200024460006040518060a00160405280600060ff168152602001600160ff168152602001600360ff168152602001600560ff168152602001600560ff168152506040518060a00160405280600060ff168152602001600560ff168152602001600460ff168152602001600160ff168152602001600360ff168152506200060860201b60201c565b620002cc60016040518060a00160405280600160ff168152602001600460ff168152602001600460ff168152602001600060ff168152602001600560ff168152506040518060a00160405280600060ff168152602001600160ff168152602001600360ff168152602001600560ff168152602001600660ff168152506200060860201b60201c565b6200035460026040518060a00160405280600260ff168152602001600360ff168152602001600160ff168152602001600360ff168152602001600060ff168152506040518060a00160405280600060ff168152602001600260ff168152602001600360ff168152602001600560ff168152602001600660ff168152506200060860201b60201c565b620003dc60036040518060a00160405280600360ff168152602001600160ff168152602001600360ff168152602001600160ff168152602001600260ff168152506040518060a00160405280600060ff168152602001600160ff168152602001600360ff168152602001600460ff168152602001600660ff168152506200060860201b60201c565b6200046460046040518060a00160405280600460ff168152602001600260ff168152602001600560ff168152602001600060ff168152602001600460ff168152506040518060a00160405280600060ff168152602001600260ff168152602001600260ff168152602001600360ff168152602001600560ff168152506200060860201b60201c565b620004ec60056040518060a00160405280600560ff168152602001600260ff168152602001600360ff168152602001600560ff168152602001600160ff168152506040518060a00160405280600060ff168152602001600560ff168152602001600160ff168152602001600460ff168152602001600660ff168152506200060860201b60201c565b6200057460076040518060a00160405280600060ff168152602001600160ff168152602001600260ff168152602001600460ff168152602001600260ff168152506040518060a00160405280600160ff168152602001600260ff168152602001600360ff168152602001600660ff168152602001600460ff168152506200060860201b60201c565b620005fc60066040518060a00160405280600060ff168152602001600260ff168152602001600060ff168152602001600460ff168152602001600360ff168152506040518060a00160405280600260ff168152602001600160ff168152602001600460ff168152602001600460ff168152602001600660ff168152506200060860201b60201c565b505050505050620009d6565b60005b60058160ff1610156200086a5760006040518060400160405280858460ff166005811062000662577f4e487b7100000000000000000000000000000000000000000000000000000000600052603260045260246000fd5b602002015160ff168152602001848460ff1660058110620006ac577f4e487b7100000000000000000000000000000000000000000000000000000000600052603260045260246000fd5b602002015160ff168152509050600d6000866007811115620006f7577f4e487b7100000000000000000000000000000000000000000000000000000000600052602160045260246000fd5b600781111562000730577f4e487b7100000000000000000000000000000000000000000000000000000000600052602160045260246000fd5b8152602001908152602001600020819080600181540180825580915050600190039060005260206000200160009091909190915060008201518160000160006101000a81548160ff021916908360ff16021790555060208201518160000160016101000a81548160ff021916908360ff1602179055505050600e6000826000015160ff1681526020019081526020016000206000826020015160ff1681526020019081526020016000208590806001815401808255809150506001900390600052602060002090602091828204019190069091909190916101000a81548160ff021916908360078111156200084e577f4e487b7100000000000000000000000000000000000000000000000000000000600052602160045260246000fd5b021790555050808062000861906200095e565b9150506200060b565b50505050565b6000815190506200088181620009bc565b92915050565b60008060008060008060c08789031215620008a157600080fd5b6000620008b189828a0162000870565b9650506020620008c489828a0162000870565b9550506040620008d789828a0162000870565b9450506060620008ea89828a0162000870565b9350506080620008fd89828a0162000870565b92505060a06200091089828a0162000870565b9150509295509295509295565b60006200092a8262000931565b9050919050565b600073ffffffffffffffffffffffffffffffffffffffff82169050919050565b600060ff82169050919050565b60006200096b8262000951565b915060ff8214156200098257620009816200098d565b5b600182019050919050565b7f4e487b7100000000000000000000000000000000000000000000000000000000600052601160045260246000fd5b620009c7816200091d565b8114620009d357600080fd5b50565b615b9880620009e66000396000f3fe608060405234801561001057600080fd5b50600436106102505760003560e01c80638303dde911610146578063beb8ba20116100c3578063e0ceaf1211610087578063e0ceaf121461077a578063e29eedaf14610798578063e5ed1d59146107b4578063ec55fe2c146107d0578063f050119814610800578063fde2518c1461083157610250565b8063beb8ba20146106d8578063d0399bb8146106f4578063d608389114610710578063da7fbdb714610740578063db21d0af1461075c57610250565b8063a273de4b1161010a578063a273de4b14610620578063b135bbb014610650578063b306db161461066e578063bc2757731461068a578063bdfd1c3a146106ba57610250565b80638303dde914610567578063854fc79b146105985780638c65c81f146105b45780638d387a4a146105e6578063971600ab1461060257610250565b806343d3034e116101d45780637005050411610198578063700505041461048a57806370ace7c3146104bb578063737d1c94146104eb5780637ae2b5c7146105075780637cf090ad1461053757610250565b806343d3034e146103ab5780634e8332b7146103c757806351218cc4146103f85780636bb635e71461042a5780636fee2fe41461045a57610250565b80630f5ead741161021b5780630f5ead741461030957806311bc91011461032757806321cc799014610357578063272eb5df146103735780634009139f1461038f57610250565b80621b090b14610255578062bf381714610285578062f5544f146102a157806304efd4a8146102bd5780630a4debe5146102ed575b600080fd5b61026f600480360381019061026a9190614695565b61084f565b60405161027c9190615337565b60405180910390f35b61029f600480360381019061029a91906146be565b61086f565b005b6102bb60048036038101906102b69190614695565b610a94565b005b6102d760048036038101906102d291906148a1565b610be3565b6040516102e49190615337565b60405180910390f35b610307600480360381019061030291906148dd565b610c14565b005b610311610f1f565b60405161031e9190615115565b60405180910390f35b610341600480360381019061033c9190614695565b610f45565b60405161034e9190614f72565b60405180910390f35b610371600480360381019061036c9190614969565b610f78565b005b61038d600480360381019061038891906146fa565b6112f8565b005b6103a960048036038101906103a491906147af565b61165f565b005b6103c560048036038101906103c09190614828565b611a46565b005b6103e160048036038101906103dc9190614695565b611db9565b6040516103ef9291906153c0565b60405180910390f35b610412600480360381019061040d91906149f5565b611df7565b60405161042193929190615352565b60405180910390f35b610444600480360381019061043f9190614695565b611e55565b60405161045191906150a9565b60405180910390f35b610474600480360381019061046f91906148a1565b611e75565b6040516104819190614f72565b60405180910390f35b6104a4600480360381019061049f91906146be565b611ec3565b6040516104b29291906153c0565b60405180910390f35b6104d560048036038101906104d09190614695565b611f0e565b6040516104e291906150a9565b60405180910390f35b610505600480360381019061050091906146fa565b611f2e565b005b610521600480360381019061051c91906148a1565b61222b565b60405161052e9190615337565b60405180910390f35b610551600480360381019061054c9190614695565b612245565b60405161055e91906150a9565b60405180910390f35b610581600480360381019061057c9190614659565b612265565b60405161058f9291906153c0565b60405180910390f35b6105b260048036038101906105ad91906146fa565b6122bc565b005b6105ce60048036038101906105c99190614695565b6125b9565b6040516105dd93929190615389565b60405180910390f35b61060060048036038101906105fb9190614736565b6125f0565b005b61060a6128b9565b604051610617919061514b565b60405180910390f35b61063a60048036038101906106359190614695565b6128df565b6040516106479190615166565b60405180910390f35b6106586128ff565b6040516106659190615337565b60405180910390f35b61068860048036038101906106839190614969565b612905565b005b6106a4600480360381019061069f9190614695565b612c64565b6040516106b19190615181565b60405180910390f35b6106c2612c84565b6040516106cf9190615130565b60405180910390f35b6106f260048036038101906106ed9190614828565b612caa565b005b61070e60048036038101906107099190614695565b61308d565b005b61072a60048036038101906107259190614695565b61325a565b60405161073791906150a9565b60405180910390f35b61075a60048036038101906107559190614a44565b613319565b005b6107646138ff565b60405161077191906150fa565b60405180910390f35b610782613925565b60405161078f91906150c4565b60405180910390f35b6107b260048036038101906107ad91906146be565b61394b565b005b6107ce60048036038101906107c99190614695565b613ae4565b005b6107ea60048036038101906107e59190614695565b613f5f565b6040516107f79190615337565b60405180910390f35b61081a60048036038101906108159190614695565b613f7f565b6040516108289291906153c0565b60405180910390f35b610839613fbd565b60405161084691906150df565b60405180910390f35b600060066000838152602001908152602001600020805490509050919050565b8160018060058111156108ab577f4e487b7100000000000000000000000000000000000000000000000000000000600052602160045260246000fd5b6008600084815260200190815260200160002060009054906101000a900460ff166005811115610904577f4e487b7100000000000000000000000000000000000000000000000000000000600052602160045260246000fd5b14610944576040517f08c379a000000000000000000000000000000000000000000000000000000000815260040161093b906151dc565b60405180910390fd5b60006007600086815260200190815260200160002080549050905060008110158015610971575060048111155b6109b0576040517f08c379a00000000000000000000000000000000000000000000000000000000081526004016109a79061523c565b60405180910390fd5b60076000868152602001908152602001600020849080600181540180825580915050600190039060005260206000200160009091909190916101000a81548173ffffffffffffffffffffffffffffffffffffffff021916908373ffffffffffffffffffffffffffffffffffffffff1602179055506001600c600087815260200190815260200160002060008673ffffffffffffffffffffffffffffffffffffffff1673ffffffffffffffffffffffffffffffffffffffff16815260200190815260200160002060006101000a81548160ff0219169083151502179055505050505050565b806000806005811115610ad0577f4e487b7100000000000000000000000000000000000000000000000000000000600052602160045260246000fd5b6008600084815260200190815260200160002060009054906101000a900460ff166005811115610b29577f4e487b7100000000000000000000000000000000000000000000000000000000600052602160045260246000fd5b14610b69576040517f08c379a0000000000000000000000000000000000000000000000000000000008152600401610b60906151dc565b60405180910390fd5b600183610b7691906155c9565b60108190555060016008600085815260200190815260200160002060006101000a81548160ff02191690836005811115610bd9577f4e487b7100000000000000000000000000000000000000000000000000000000600052602160045260246000fd5b0217905550505050565b60066020528160005260406000208181548110610bff57600080fd5b90600052602060002001600091509150505481565b853373ffffffffffffffffffffffffffffffffffffffff166009600083815260200190815260200160002060009054906101000a900473ffffffffffffffffffffffffffffffffffffffff1673ffffffffffffffffffffffffffffffffffffffff1614610cb6576040517f08c379a0000000000000000000000000000000000000000000000000000000008152600401610cad906152fc565b60405180910390fd5b866002806005811115610cf2577f4e487b7100000000000000000000000000000000000000000000000000000000600052602160045260246000fd5b6008600084815260200190815260200160002060009054906101000a900460ff166005811115610d4b577f4e487b7100000000000000000000000000000000000000000000000000000000600052602160045260246000fd5b14610d8b576040517f08c379a0000000000000000000000000000000000000000000000000000000008152600401610d82906151dc565b60405180910390fd5b6000600660008b815260200190815260200160002080549050905060008114610de9576040517f08c379a0000000000000000000000000000000000000000000000000000000008152600401610de0906151bc565b60405180910390fd5b600460009054906101000a900473ffffffffffffffffffffffffffffffffffffffff1673ffffffffffffffffffffffffffffffffffffffff1663f5c9d69e898989896040518563ffffffff1660e01b8152600401610e4a949392919061501b565b60206040518083038186803b158015610e6257600080fd5b505afa158015610e76573d6000803e3d6000fd5b505050506040513d601f19601f82011682018060405250810190610e9a9190614630565b610ed9576040517f08c379a0000000000000000000000000000000000000000000000000000000008152600401610ed09061521c565b60405180910390fd5b600660008b815260200190815260200160002089908060018154018082558091505060019003906000526020600020016000909190919091505550505050505050505050565b600360009054906101000a900473ffffffffffffffffffffffffffffffffffffffff1681565b60096020528060005260406000206000915054906101000a900473ffffffffffffffffffffffffffffffffffffffff1681565b853373ffffffffffffffffffffffffffffffffffffffff166009600083815260200190815260200160002060009054906101000a900473ffffffffffffffffffffffffffffffffffffffff1673ffffffffffffffffffffffffffffffffffffffff161461101a576040517f08c379a0000000000000000000000000000000000000000000000000000000008152600401611011906152fc565b60405180910390fd5b866002806005811115611056577f4e487b7100000000000000000000000000000000000000000000000000000000600052602160045260246000fd5b6008600084815260200190815260200160002060009054906101000a900460ff1660058111156110af577f4e487b7100000000000000000000000000000000000000000000000000000000600052602160045260246000fd5b146110ef576040517f08c379a00000000000000000000000000000000000000000000000000000000081526004016110e6906151dc565b60405180910390fd5b6000600660008b81526020019081526020016000208054905090506005811061114d576040517f08c379a0000000000000000000000000000000000000000000000000000000008152600401611144906151fc565b60405180910390fd5b600560009054906101000a900473ffffffffffffffffffffffffffffffffffffffff1673ffffffffffffffffffffffffffffffffffffffff16635fe8c13b898989896040518563ffffffff1660e01b81526004016111ae9493929190615062565b60206040518083038186803b1580156111c657600080fd5b505afa1580156111da573d6000803e3d6000fd5b505050506040513d601f19601f820116820180604052508101906111fe9190614630565b61123d576040517f08c379a00000000000000000000000000000000000000000000000000000000081526004016112349061521c565b60405180910390fd5b600660008b815260200190815260200160002089908060018154018082558091505060019003906000526020600020016000909190919091505560048114156112ec576003600860008c815260200190815260200160002060006101000a81548160ff021916908360058111156112dd577f4e487b7100000000000000000000000000000000000000000000000000000000600052602160045260246000fd5b02179055506112eb8a613fe1565b5b50505050505050505050565b6000600a600084815260200190815260200160002090508060010160009054906101000a900460ff16611360576040517f08c379a00000000000000000000000000000000000000000000000000000000081526004016113579061529c565b60405180910390fd5b8060040160003373ffffffffffffffffffffffffffffffffffffffff1673ffffffffffffffffffffffffffffffffffffffff16815260200190815260200160002060009054906101000a900460ff16156113ef576040517f08c379a00000000000000000000000000000000000000000000000000000000081526004016113e69061525c565b60405180910390fd5b6000600e60008460006002811061142f577f4e487b7100000000000000000000000000000000000000000000000000000000600052603260045260246000fd5b6020020135815260200190815260200160002060008460016002811061147e577f4e487b7100000000000000000000000000000000000000000000000000000000600052603260045260246000fd5b602002013581526020019081526020016000206000815481106114ca577f4e487b7100000000000000000000000000000000000000000000000000000000600052603260045260246000fd5b90600052602060002090602091828204019190069054906101000a900460ff169050806011600086815260200190815260200160002060006101000a81548160ff02191690836007811115611548577f4e487b7100000000000000000000000000000000000000000000000000000000600052602160045260246000fd5b021790555060016012600086815260200190815260200160002060006101000a81548160ff02191690831515021790555060018260040160003373ffffffffffffffffffffffffffffffffffffffff1673ffffffffffffffffffffffffffffffffffffffff16815260200190815260200160002060006101000a81548160ff0219169083151502179055508160020160008154809291906115e8906157fb565b91905055503373ffffffffffffffffffffffffffffffffffffffff167f89d440be44961433f3a0ef1e19a88ade6f47a815ecc31a856895f464072e0118826040516116339190615166565b60405180910390a261164484613f5f565b826002015414156116595761165884613fe1565b5b50505050565b843373ffffffffffffffffffffffffffffffffffffffff166009600083815260200190815260200160002060009054906101000a900473ffffffffffffffffffffffffffffffffffffffff1673ffffffffffffffffffffffffffffffffffffffff1614611701576040517f08c379a00000000000000000000000000000000000000000000000000000000081526004016116f8906152fc565b60405180910390fd5b85600380600581111561173d577f4e487b7100000000000000000000000000000000000000000000000000000000600052602160045260246000fd5b6008600084815260200190815260200160002060009054906101000a900460ff166005811115611796577f4e487b7100000000000000000000000000000000000000000000000000000000600052602160045260246000fd5b146117d6576040517f08c379a00000000000000000000000000000000000000000000000000000000081526004016117cd906151dc565b60405180910390fd5b60008054906101000a900473ffffffffffffffffffffffffffffffffffffffff1673ffffffffffffffffffffffffffffffffffffffff16633564a25a888888886040518563ffffffff1660e01b81526004016118359493929190614fd4565b60206040518083038186803b15801561184d57600080fd5b505afa158015611861573d6000803e3d6000fd5b505050506040513d601f19601f820116820180604052508101906118859190614630565b6118c4576040517f08c379a00000000000000000000000000000000000000000000000000000000081526004016118bb9061521c565b60405180910390fd5b60405180606001604052806000815260200160001515815260200160011515815250600f60008a8152602001908152602001600020600086600b601b8110611935577f4e487b7100000000000000000000000000000000000000000000000000000000600052603260045260246000fd5b60200201518152602001908152602001600020600086600c601b8110611984577f4e487b7100000000000000000000000000000000000000000000000000000000600052603260045260246000fd5b602002015181526020019081526020016000206000820151816000015560208201518160010160006101000a81548160ff02191690831515021790555060408201518160010160016101000a81548160ff0219169083151502179055509050506000601260008a815260200190815260200160002060006101000a81548160ff0219169083151502179055507f591d1759d6064e2990f8179b350589202e8c28dc2cdea284a4478361dd39e4a460405160405180910390a15050505050505050565b843373ffffffffffffffffffffffffffffffffffffffff166009600083815260200190815260200160002060009054906101000a900473ffffffffffffffffffffffffffffffffffffffff1673ffffffffffffffffffffffffffffffffffffffff1614611ae8576040517f08c379a0000000000000000000000000000000000000000000000000000000008152600401611adf906152fc565b60405180910390fd5b856003806005811115611b24577f4e487b7100000000000000000000000000000000000000000000000000000000600052602160045260246000fd5b6008600084815260200190815260200160002060009054906101000a900460ff166005811115611b7d577f4e487b7100000000000000000000000000000000000000000000000000000000600052602160045260246000fd5b14611bbd576040517f08c379a0000000000000000000000000000000000000000000000000000000008152600401611bb4906151dc565b60405180910390fd5b600260009054906101000a900473ffffffffffffffffffffffffffffffffffffffff1673ffffffffffffffffffffffffffffffffffffffff16635fe8c13b888888886040518563ffffffff1660e01b8152600401611c1e9493929190615062565b60206040518083038186803b158015611c3657600080fd5b505afa158015611c4a573d6000803e3d6000fd5b505050506040513d601f19601f82011682018060405250810190611c6e9190614630565b611cad576040517f08c379a0000000000000000000000000000000000000000000000000000000008152600401611ca49061521c565b60405180910390fd5b6000601660008a815260200190815260200160002060006101000a81548160ff021916908315150217905550600184600060048110611d15577f4e487b7100000000000000000000000000000000000000000000000000000000600052603260045260246000fd5b60200201511415611d83576005600860008a815260200190815260200160002060006101000a81548160ff02191690836005811115611d7d577f4e487b7100000000000000000000000000000000000000000000000000000000600052602160045260246000fd5b02179055505b7f222cfcb8e1d27019350b4e1333c6f1e132af91b3299d4c8c08c727c9eeed8c6060405160405180910390a15050505050505050565b60156020528060005260406000206000915090508060000160009054906101000a900460ff16908060000160019054906101000a900460ff16905082565b600f60205282600052604060002060205281600052604060002060205280600052604060002060009250925050508060000154908060010160009054906101000a900460ff16908060010160019054906101000a900460ff16905083565b60146020528060005260406000206000915054906101000a900460ff1681565b60076020528160005260406000208181548110611e9157600080fd5b906000526020600020016000915091509054906101000a900473ffffffffffffffffffffffffffffffffffffffff1681565b600b602052816000526040600020602052806000526040600020600091509150508060000160009054906101000a900460ff16908060000160019054906101000a900460ff16905082565b60166020528060005260406000206000915054906101000a900460ff1681565b6000600a600084815260200190815260200160002090508060010160009054906101000a900460ff16611f96576040517f08c379a0000000000000000000000000000000000000000000000000000000008152600401611f8d9061529c565b60405180910390fd5b8060040160003373ffffffffffffffffffffffffffffffffffffffff1673ffffffffffffffffffffffffffffffffffffffff16815260200190815260200160002060009054906101000a900460ff1615612025576040517f08c379a000000000000000000000000000000000000000000000000000000000815260040161201c9061525c565b60405180910390fd5b600060405180604001604052808460006002811061206c577f4e487b7100000000000000000000000000000000000000000000000000000000600052603260045260246000fd5b602002013560ff168152602001846001600281106120b3577f4e487b7100000000000000000000000000000000000000000000000000000000600052603260045260246000fd5b602002013560ff168152509050806013600086815260200190815260200160002060008201518160000160006101000a81548160ff021916908360ff16021790555060208201518160000160016101000a81548160ff021916908360ff16021790555090505060016014600086815260200190815260200160002060006101000a81548160ff02191690831515021790555060018260040160003373ffffffffffffffffffffffffffffffffffffffff1673ffffffffffffffffffffffffffffffffffffffff16815260200190815260200160002060006101000a81548160ff0219169083151502179055508160020160008154809291906121b4906157fb565b91905055503373ffffffffffffffffffffffffffffffffffffffff167fff9ffde1e1776dd555b580d61131dd5c3c65f244927c6ed59f7fd29681566b95826040516121ff919061531c565b60405180910390a261221084613f5f565b826002015414156122255761222484613fe1565b5b50505050565b60008183101561223b578261223d565b815b905092915050565b60126020528060005260406000206000915054906101000a900460ff1681565b600d602052816000526040600020818154811061228157600080fd5b90600052602060002001600091509150508060000160009054906101000a900460ff16908060000160019054906101000a900460ff16905082565b6000600a600084815260200190815260200160002090508060010160009054906101000a900460ff16612324576040517f08c379a000000000000000000000000000000000000000000000000000000000815260040161231b9061529c565b60405180910390fd5b8060040160003373ffffffffffffffffffffffffffffffffffffffff1673ffffffffffffffffffffffffffffffffffffffff16815260200190815260200160002060009054906101000a900460ff16156123b3576040517f08c379a00000000000000000000000000000000000000000000000000000000081526004016123aa9061525c565b60405180910390fd5b60006040518060400160405280846000600281106123fa577f4e487b7100000000000000000000000000000000000000000000000000000000600052603260045260246000fd5b602002013560ff16815260200184600160028110612441577f4e487b7100000000000000000000000000000000000000000000000000000000600052603260045260246000fd5b602002013560ff168152509050806015600086815260200190815260200160002060008201518160000160006101000a81548160ff021916908360ff16021790555060208201518160000160016101000a81548160ff021916908360ff16021790555090505060016016600086815260200190815260200160002060006101000a81548160ff02191690831515021790555060018260040160003373ffffffffffffffffffffffffffffffffffffffff1673ffffffffffffffffffffffffffffffffffffffff16815260200190815260200160002060006101000a81548160ff021916908315150217905550816002016000815480929190612542906157fb565b91905055503373ffffffffffffffffffffffffffffffffffffffff167f8b12abbc4e529afca987d415e4f8d8aa73d368692f3b84bfcff32fbf238cff188260405161258d919061531c565b60405180910390a261259e84613f5f565b826002015414156125b3576125b284613fe1565b5b50505050565b600a6020528060005260406000206000915090508060000154908060010160009054906101000a900460ff16908060020154905083565b843373ffffffffffffffffffffffffffffffffffffffff166009600083815260200190815260200160002060009054906101000a900473ffffffffffffffffffffffffffffffffffffffff1673ffffffffffffffffffffffffffffffffffffffff1614612692576040517f08c379a0000000000000000000000000000000000000000000000000000000008152600401612689906152fc565b60405180910390fd5b8560038060058111156126ce577f4e487b7100000000000000000000000000000000000000000000000000000000600052602160045260246000fd5b6008600084815260200190815260200160002060009054906101000a900460ff166005811115612727577f4e487b7100000000000000000000000000000000000000000000000000000000600052602160045260246000fd5b14612767576040517f08c379a000000000000000000000000000000000000000000000000000000000815260040161275e906151dc565b60405180910390fd5b600160009054906101000a900473ffffffffffffffffffffffffffffffffffffffff1673ffffffffffffffffffffffffffffffffffffffff16636228e166888888886040518563ffffffff1660e01b81526004016127c89493929190614f8d565b60206040518083038186803b1580156127e057600080fd5b505afa1580156127f4573d6000803e3d6000fd5b505050506040513d601f19601f820116820180604052508101906128189190614630565b612857576040517f08c379a000000000000000000000000000000000000000000000000000000000815260040161284e9061521c565b60405180910390fd5b6000601260008a815260200190815260200160002060006101000a81548160ff0219169083151502179055507f591d1759d6064e2990f8179b350589202e8c28dc2cdea284a4478361dd39e4a460405160405180910390a15050505050505050565b600460009054906101000a900473ffffffffffffffffffffffffffffffffffffffff1681565b60116020528060005260406000206000915054906101000a900460ff1681565b60105481565b853373ffffffffffffffffffffffffffffffffffffffff166009600083815260200190815260200160002060009054906101000a900473ffffffffffffffffffffffffffffffffffffffff1673ffffffffffffffffffffffffffffffffffffffff16146129a7576040517f08c379a000000000000000000000000000000000000000000000000000000000815260040161299e906152fc565b60405180910390fd5b8660038060058111156129e3577f4e487b7100000000000000000000000000000000000000000000000000000000600052602160045260246000fd5b6008600084815260200190815260200160002060009054906101000a900460ff166005811115612a3c577f4e487b7100000000000000000000000000000000000000000000000000000000600052602160045260246000fd5b14612a7c576040517f08c379a0000000000000000000000000000000000000000000000000000000008152600401612a73906151dc565b60405180910390fd5b6000600a60008b815260200190815260200160002090508060010160009054906101000a900460ff1615612ae5576040517f08c379a0000000000000000000000000000000000000000000000000000000008152600401612adc906152dc565b60405180910390fd5b600560009054906101000a900473ffffffffffffffffffffffffffffffffffffffff1673ffffffffffffffffffffffffffffffffffffffff16635fe8c13b898989896040518563ffffffff1660e01b8152600401612b469493929190615062565b60206040518083038186803b158015612b5e57600080fd5b505afa158015612b72573d6000803e3d6000fd5b505050506040513d601f19601f82011682018060405250810190612b969190614630565b612bd5576040517f08c379a0000000000000000000000000000000000000000000000000000000008152600401612bcc9061521c565b60405180910390fd5b600660008b815260200190815260200160002089908060018154018082558091505060019003906000526020600020016000909190919091505560018160010160006101000a81548160ff0219169083151502179055507f156bc0e8ea64e9ba4b24b98e5b5aaeb63e57453e491f3e47d0a155b103d527c160405160405180910390a150505050505050505050565b60086020528060005260406000206000915054906101000a900460ff1681565b600560009054906101000a900473ffffffffffffffffffffffffffffffffffffffff1681565b843373ffffffffffffffffffffffffffffffffffffffff166009600083815260200190815260200160002060009054906101000a900473ffffffffffffffffffffffffffffffffffffffff1673ffffffffffffffffffffffffffffffffffffffff1614612d4c576040517f08c379a0000000000000000000000000000000000000000000000000000000008152600401612d43906152fc565b60405180910390fd5b856003806005811115612d88577f4e487b7100000000000000000000000000000000000000000000000000000000600052602160045260246000fd5b6008600084815260200190815260200160002060009054906101000a900460ff166005811115612de1577f4e487b7100000000000000000000000000000000000000000000000000000000600052602160045260246000fd5b14612e21576040517f08c379a0000000000000000000000000000000000000000000000000000000008152600401612e18906151dc565b60405180910390fd5b600360009054906101000a900473ffffffffffffffffffffffffffffffffffffffff1673ffffffffffffffffffffffffffffffffffffffff16635fe8c13b888888886040518563ffffffff1660e01b8152600401612e829493929190615062565b60206040518083038186803b158015612e9a57600080fd5b505afa158015612eae573d6000803e3d6000fd5b505050506040513d601f19601f82011682018060405250810190612ed29190614630565b612f11576040517f08c379a0000000000000000000000000000000000000000000000000000000008152600401612f089061521c565b60405180910390fd5b6000600f60008a8152602001908152602001600020600086600060048110612f62577f4e487b7100000000000000000000000000000000000000000000000000000000600052603260045260246000fd5b60200201518152602001908152602001600020600086600160048110612fb1577f4e487b7100000000000000000000000000000000000000000000000000000000600052603260045260246000fd5b60200201518152602001908152602001600020905084600260048110613000577f4e487b7100000000000000000000000000000000000000000000000000000000600052603260045260246000fd5b6020020151816000018190555060018160010160006101000a81548160ff0219169083151502179055506000601460008b815260200190815260200160002060006101000a81548160ff0219169083151502179055507f7e2ffb2f0aaec15e244da050ff6fe4c0a13766053b6f32dc2d867a78d98984f760405160405180910390a1505050505050505050565b8060038060058111156130c9577f4e487b7100000000000000000000000000000000000000000000000000000000600052602160045260246000fd5b6008600084815260200190815260200160002060009054906101000a900460ff166005811115613122577f4e487b7100000000000000000000000000000000000000000000000000000000600052602160045260246000fd5b14613162576040517f08c379a0000000000000000000000000000000000000000000000000000000008152600401613159906151dc565b60405180910390fd5b60006009600085815260200190815260200160002060006101000a81548173ffffffffffffffffffffffffffffffffffffffff021916908373ffffffffffffffffffffffffffffffffffffffff16021790555060016008600085815260200190815260200160002060006101000a81548160ff02191690836005811115613212577f4e487b7100000000000000000000000000000000000000000000000000000000600052602160045260246000fd5b02179055506006600084815260200190815260200160002060006132369190614298565b60076000848152602001908152602001600020600061325591906142b9565b505050565b6000600460076000848152602001908152602001600020805490501080156133125750600160058111156132b7577f4e487b7100000000000000000000000000000000000000000000000000000000600052602160045260246000fd5b6008600084815260200190815260200160002060009054906101000a900460ff166005811115613310577f4e487b7100000000000000000000000000000000000000000000000000000000600052602160045260246000fd5b145b9050919050565b826003806005811115613355577f4e487b7100000000000000000000000000000000000000000000000000000000600052602160045260246000fd5b6008600084815260200190815260200160002060009054906101000a900460ff1660058111156133ae577f4e487b7100000000000000000000000000000000000000000000000000000000600052602160045260246000fd5b146133ee576040517f08c379a00000000000000000000000000000000000000000000000000000000081526004016133e5906151dc565b60405180910390fd5b84600c600082815260200190815260200160002060003373ffffffffffffffffffffffffffffffffffffffff1673ffffffffffffffffffffffffffffffffffffffff16815260200190815260200160002060009054906101000a900460ff1661348c576040517f08c379a0000000000000000000000000000000000000000000000000000000008152600401613483906152bc565b60405180910390fd5b6000600a600088815260200190815260200160002090508060010160009054906101000a900460ff166134f4576040517f08c379a00000000000000000000000000000000000000000000000000000000081526004016134eb9061529c565b60405180910390fd5b8060030160003373ffffffffffffffffffffffffffffffffffffffff1673ffffffffffffffffffffffffffffffffffffffff16815260200190815260200160002060009054906101000a900460ff1615613583576040517f08c379a000000000000000000000000000000000000000000000000000000000815260040161357a9061519c565b60405180910390fd5b6000600b600089815260200190815260200160002060003373ffffffffffffffffffffffffffffffffffffffff1673ffffffffffffffffffffffffffffffffffffffff1681526020019081526020016000206040518060400160405290816000820160009054906101000a900460ff1660ff1660ff1681526020016000820160019054906101000a900460ff1660ff1660ff168152505090506000816000015160ff168860ff16116136445787826000015161363f919061561f565b613655565b816000015188613654919061561f565b5b90506000826020015160ff168860ff161161367f5787836020015161367a919061561f565b613690565b82602001518861368f919061561f565b5b905060028260ff161480156136a9575060008160ff1614155b156136e9576040517f08c379a00000000000000000000000000000000000000000000000000000000081526004016136e09061527c565b60405180910390fd5b60028160ff16148015613700575060008260ff1614155b15613740576040517f08c379a00000000000000000000000000000000000000000000000000000000081526004016137379061527c565b60405180910390fd5b60018260ff161180613755575060018160ff16115b15613795576040517f08c379a000000000000000000000000000000000000000000000000000000000815260040161378c9061527c565b60405180910390fd5b600060405180604001604052808b60ff1681526020018a60ff16815250905080600b60008d815260200190815260200160002060003373ffffffffffffffffffffffffffffffffffffffff1673ffffffffffffffffffffffffffffffffffffffff16815260200190815260200160002060008201518160000160006101000a81548160ff021916908360ff16021790555060208201518160000160016101000a81548160ff021916908360ff16021790555090505060018560030160003373ffffffffffffffffffffffffffffffffffffffff1673ffffffffffffffffffffffffffffffffffffffff16815260200190815260200160002060006101000a81548160ff0219169083151502179055503373ffffffffffffffffffffffffffffffffffffffff167f4a396c85fafa10375fcfc998e11d4b3e61787deadde0bee02ed301640e698686826040516138ea919061531c565b60405180910390a25050505050505050505050565b600260009054906101000a900473ffffffffffffffffffffffffffffffffffffffff1681565b600160009054906101000a900473ffffffffffffffffffffffffffffffffffffffff1681565b816001806005811115613987577f4e487b7100000000000000000000000000000000000000000000000000000000600052602160045260246000fd5b6008600084815260200190815260200160002060009054906101000a900460ff1660058111156139e0577f4e487b7100000000000000000000000000000000000000000000000000000000600052602160045260246000fd5b14613a20576040517f08c379a0000000000000000000000000000000000000000000000000000000008152600401613a17906151dc565b60405180910390fd5b600073ffffffffffffffffffffffffffffffffffffffff166009600086815260200190815260200160002060009054906101000a900473ffffffffffffffffffffffffffffffffffffffff1673ffffffffffffffffffffffffffffffffffffffff1614613a8c57600080fd5b826009600086815260200190815260200160002060006101000a81548173ffffffffffffffffffffffffffffffffffffffff021916908373ffffffffffffffffffffffffffffffffffffffff16021790555050505050565b803373ffffffffffffffffffffffffffffffffffffffff166009600083815260200190815260200160002060009054906101000a900473ffffffffffffffffffffffffffffffffffffffff1673ffffffffffffffffffffffffffffffffffffffff1614613b86576040517f08c379a0000000000000000000000000000000000000000000000000000000008152600401613b7d906152fc565b60405180910390fd5b816001806005811115613bc2577f4e487b7100000000000000000000000000000000000000000000000000000000600052602160045260246000fd5b6008600084815260200190815260200160002060009054906101000a900460ff166005811115613c1b577f4e487b7100000000000000000000000000000000000000000000000000000000600052602160045260246000fd5b14613c5b576040517f08c379a0000000000000000000000000000000000000000000000000000000008152600401613c52906151dc565b60405180910390fd5b6000613c6685613f5f565b905060026008600087815260200190815260200160002060006101000a81548160ff02191690836005811115613cc5577f4e487b7100000000000000000000000000000000000000000000000000000000600052602160045260246000fd5b0217905550600060405180608001604052806040518060400160405280600060ff168152602001600060ff1681525081526020016040518060400160405280600060ff168152602001600760ff1681525081526020016040518060400160405280600560ff168152602001600060ff1681525081526020016040518060400160405280600560ff168152602001600760ff16815250815250905060005b82811015613f56576000600760008981526020019081526020016000208281548110613db7577f4e487b7100000000000000000000000000000000000000000000000000000000600052603260045260246000fd5b9060005260206000200160009054906101000a900473ffffffffffffffffffffffffffffffffffffffff169050828260048110613e1d577f4e487b7100000000000000000000000000000000000000000000000000000000600052603260045260246000fd5b6020020151600b60008a815260200190815260200160002060008373ffffffffffffffffffffffffffffffffffffffff1673ffffffffffffffffffffffffffffffffffffffff16815260200190815260200160002060008201518160000160006101000a81548160ff021916908360ff16021790555060208201518160000160016101000a81548160ff021916908360ff1602179055509050508073ffffffffffffffffffffffffffffffffffffffff167f4a396c85fafa10375fcfc998e11d4b3e61787deadde0bee02ed301640e698686848460048110613f28577f4e487b7100000000000000000000000000000000000000000000000000000000600052603260045260246000fd5b6020020151604051613f3a919061531c565b60405180910390a2508080613f4e906157fb565b915050613d62565b50505050505050565b600060076000838152602001908152602001600020805490509050919050565b60136020528060005260406000206000915090508060000160009054906101000a900460ff16908060000160019054906101000a900460ff16905082565b60008054906101000a900473ffffffffffffffffffffffffffffffffffffffff1681565b6000600a6000838152602001908152602001600020905060006007600084815260200190815260200160002080548060200260200160405190810160405280929190818152602001828054801561408d57602002820191906000526020600020905b8160009054906101000a900473ffffffffffffffffffffffffffffffffffffffff1673ffffffffffffffffffffffffffffffffffffffff1681526020019060010190808311614043575b505050505090506000600183600001546140a791906155c9565b9050600e81111561411c5760046008600086815260200190815260200160002060006101000a81548160ff0219169083600581111561410f577f4e487b7100000000000000000000000000000000000000000000000000000000600052602160045260246000fd5b0217905550505050614295565b60005b83600201548110156142605783600401600084838151811061416a577f4e487b7100000000000000000000000000000000000000000000000000000000600052603260045260246000fd5b602002602001015173ffffffffffffffffffffffffffffffffffffffff1673ffffffffffffffffffffffffffffffffffffffff16815260200190815260200160002060006101000a81549060ff02191690558360030160008483815181106141fb577f4e487b7100000000000000000000000000000000000000000000000000000000600052603260045260246000fd5b602002602001015173ffffffffffffffffffffffffffffffffffffffff1673ffffffffffffffffffffffffffffffffffffffff16815260200190815260200160002060006101000a81549060ff02191690558080614258906157fb565b91505061411f565b5080836000018190555060008360010160006101000a81548160ff021916908315150217905550600083600201819055505050505b50565b50805460008255906000526020600020908101906142b691906142da565b50565b50805460008255906000526020600020908101906142d791906142da565b50565b5b808211156142f35760008160009055506001016142db565b5090565b600061430a6143058461540e565b6153e9565b9050808285604086028201111561432057600080fd5b60005b858110156143505781614336888261458e565b845260208401935060408301925050600181019050614323565b5050509392505050565b600061436d61436884615434565b6153e9565b9050808285602086028201111561438357600080fd5b60005b858110156143b357816143998882614606565b845260208401935060208301925050600181019050614386565b5050509392505050565b60006143d06143cb8461545a565b6153e9565b905080828560208602820111156143e657600080fd5b60005b8581101561441657816143fc8882614606565b8452602084019350602083019250506001810190506143e9565b5050509392505050565b600061443361442e84615480565b6153e9565b9050808285602086028201111561444957600080fd5b60005b85811015614479578161445f8882614606565b84526020840193506020830192505060018101905061444c565b5050509392505050565b6000614496614491846154a6565b6153e9565b905080828560208602820111156144ac57600080fd5b60005b858110156144dc57816144c28882614606565b8452602084019350602083019250506001810190506144af565b5050509392505050565b6000813590506144f581615af6565b92915050565b600082601f83011261450c57600080fd5b60026145198482856142f7565b91505092915050565b600082601f83011261453357600080fd5b601961454084828561435a565b91505092915050565b600082601f83011261455a57600080fd5b601b6145678482856143bd565b91505092915050565b60008190508260206002028201111561458857600080fd5b92915050565b600082601f83011261459f57600080fd5b60026145ac848285614420565b91505092915050565b600082601f8301126145c657600080fd5b60046145d3848285614483565b91505092915050565b6000815190506145eb81615b0d565b92915050565b60008135905061460081615b24565b92915050565b60008135905061461581615b34565b92915050565b60008135905061462a81615b4b565b92915050565b60006020828403121561464257600080fd5b6000614650848285016145dc565b91505092915050565b6000806040838503121561466c57600080fd5b600061467a858286016145f1565b925050602061468b85828601614606565b9150509250929050565b6000602082840312156146a757600080fd5b60006146b584828501614606565b91505092915050565b600080604083850312156146d157600080fd5b60006146df85828601614606565b92505060206146f0858286016144e6565b9150509250929050565b6000806060838503121561470d57600080fd5b600061471b85828601614606565b925050602061472c85828601614570565b9150509250929050565b6000806000806000610440868803121561474f57600080fd5b600061475d88828901614606565b955050602061476e8882890161458e565b945050606061477f888289016144fb565b93505060e06147908882890161458e565b9250506101206147a288828901614522565b9150509295509295909350565b600080600080600061048086880312156147c857600080fd5b60006147d688828901614606565b95505060206147e78882890161458e565b94505060606147f8888289016144fb565b93505060e06148098882890161458e565b92505061012061481b88828901614549565b9150509295509295909350565b60008060008060006101a0868803121561484157600080fd5b600061484f88828901614606565b95505060206148608882890161458e565b9450506060614871888289016144fb565b93505060e06148828882890161458e565b925050610120614894888289016145b5565b9150509295509295909350565b600080604083850312156148b457600080fd5b60006148c285828601614606565b92505060206148d385828601614606565b9150509250929050565b60008060008060008061018087890312156148f757600080fd5b600061490589828a01614606565b965050602061491689828a01614606565b955050604061492789828a0161458e565b945050608061493889828a016144fb565b93505061010061494a89828a0161458e565b92505061014061495c89828a0161458e565b9150509295509295509295565b6000806000806000806101c0878903121561498357600080fd5b600061499189828a01614606565b96505060206149a289828a01614606565b95505060406149b389828a0161458e565b94505060806149c489828a016144fb565b9350506101006149d689828a0161458e565b9250506101406149e889828a016145b5565b9150509295509295509295565b600080600060608486031215614a0a57600080fd5b6000614a1886828701614606565b9350506020614a2986828701614606565b9250506040614a3a86828701614606565b9150509250925092565b600080600060608486031215614a5957600080fd5b6000614a6786828701614606565b9350506020614a788682870161461b565b9250506040614a898682870161461b565b9150509250925092565b6000614a9f8383614bd7565b60408301905092915050565b6000614ab78383614f36565b60208301905092915050565b614acc81615653565b82525050565b614adb816154fe565b614ae58184615576565b9250614af0826154cc565b8060005b83811015614b21578151614b088782614a93565b9650614b1383615535565b925050600181019050614af4565b505050505050565b614b3281615509565b614b3c8184615581565b9250614b47826154d6565b8060005b83811015614b78578151614b5f8782614aab565b9650614b6a83615542565b925050600181019050614b4b565b505050505050565b614b8981615514565b614b93818461558c565b9250614b9e826154e0565b8060005b83811015614bcf578151614bb68782614aab565b9650614bc18361554f565b925050600181019050614ba2565b505050505050565b614be08161551f565b614bea8184615597565b9250614bf5826154ea565b8060005b83811015614c26578151614c0d8782614aab565b9650614c188361555c565b925050600181019050614bf9565b505050505050565b614c378161551f565b614c4181846155a2565b9250614c4c826154ea565b8060005b83811015614c7d578151614c648782614aab565b9650614c6f8361555c565b925050600181019050614c50565b505050505050565b614c8e8161552a565b614c9881846155ad565b9250614ca3826154f4565b8060005b83811015614cd4578151614cbb8782614aab565b9650614cc683615569565b925050600181019050614ca7565b505050505050565b614ce581615665565b82525050565b614cf4816156ce565b82525050565b614d03816156f2565b82525050565b614d1281615716565b82525050565b614d218161573a565b82525050565b614d308161575e565b82525050565b614d3f81615782565b82525050565b614d4e816157a6565b82525050565b614d5d816157b8565b82525050565b6000614d706013836155b8565b9150614d7b826158e2565b602082019050919050565b6000614d93601d836155b8565b9150614d9e8261590b565b602082019050919050565b6000614db6601e836155b8565b9150614dc182615934565b602082019050919050565b6000614dd96016836155b8565b9150614de48261595d565b602082019050919050565b6000614dfc6016836155b8565b9150614e0782615986565b602082019050919050565b6000614e1f6018836155b8565b9150614e2a826159af565b602082019050919050565b6000614e426013836155b8565b9150614e4d826159d8565b602082019050919050565b6000614e65600c836155b8565b9150614e7082615a01565b602082019050919050565b6000614e88601b836155b8565b9150614e9382615a2a565b602082019050919050565b6000614eab600c836155b8565b9150614eb682615a53565b602082019050919050565b6000614ece6017836155b8565b9150614ed982615a7c565b602082019050919050565b6000614ef16011836155b8565b9150614efc82615aa5565b602082019050919050565b604082016000820151614f1d6000850182614f54565b506020820151614f306020850182614f54565b50505050565b614f3f816156b7565b82525050565b614f4e816156b7565b82525050565b614f5d816156c1565b82525050565b614f6c816156c1565b82525050565b6000602082019050614f876000830184614ac3565b92915050565b600061042082019050614fa36000830187614c2e565b614fb06040830186614ad2565b614fbd60c0830185614c2e565b614fcb610100830184614b29565b95945050505050565b600061046082019050614fea6000830187614c2e565b614ff76040830186614ad2565b61500460c0830185614c2e565b615012610100830184614b80565b95945050505050565b6000610140820190506150316000830187614c2e565b61503e6040830186614ad2565b61504b60c0830185614c2e565b615059610100830184614c2e565b95945050505050565b6000610180820190506150786000830187614c2e565b6150856040830186614ad2565b61509260c0830185614c2e565b6150a0610100830184614c85565b95945050505050565b60006020820190506150be6000830184614cdc565b92915050565b60006020820190506150d96000830184614ceb565b92915050565b60006020820190506150f46000830184614cfa565b92915050565b600060208201905061510f6000830184614d09565b92915050565b600060208201905061512a6000830184614d18565b92915050565b60006020820190506151456000830184614d27565b92915050565b60006020820190506151606000830184614d36565b92915050565b600060208201905061517b6000830184614d45565b92915050565b60006020820190506151966000830184614d54565b92915050565b600060208201905081810360008301526151b581614d63565b9050919050565b600060208201905081810360008301526151d581614d86565b9050919050565b600060208201905081810360008301526151f581614da9565b9050919050565b6000602082019050818103600083015261521581614dcc565b9050919050565b6000602082019050818103600083015261523581614def565b9050919050565b6000602082019050818103600083015261525581614e12565b9050919050565b6000602082019050818103600083015261527581614e35565b9050919050565b6000602082019050818103600083015261529581614e58565b9050919050565b600060208201905081810360008301526152b581614e7b565b9050919050565b600060208201905081810360008301526152d581614e9e565b9050919050565b600060208201905081810360008301526152f581614ec1565b9050919050565b6000602082019050818103600083015261531581614ee4565b9050919050565b60006040820190506153316000830184614f07565b92915050565b600060208201905061534c6000830184614f45565b92915050565b60006060820190506153676000830186614f45565b6153746020830185614cdc565b6153816040830184614cdc565b949350505050565b600060608201905061539e6000830186614f45565b6153ab6020830185614cdc565b6153b86040830184614f45565b949350505050565b60006040820190506153d56000830185614f63565b6153e26020830184614f63565b9392505050565b60006153f3615404565b90506153ff82826157ca565b919050565b6000604051905090565b600067ffffffffffffffff821115615429576154286158a2565b5b602082029050919050565b600067ffffffffffffffff82111561544f5761544e6158a2565b5b602082029050919050565b600067ffffffffffffffff821115615475576154746158a2565b5b602082029050919050565b600067ffffffffffffffff82111561549b5761549a6158a2565b5b602082029050919050565b600067ffffffffffffffff8211156154c1576154c06158a2565b5b602082029050919050565b6000819050919050565b6000819050919050565b6000819050919050565b6000819050919050565b6000819050919050565b600060029050919050565b600060199050919050565b6000601b9050919050565b600060029050919050565b600060049050919050565b6000602082019050919050565b6000602082019050919050565b6000602082019050919050565b6000602082019050919050565b6000602082019050919050565b600081905092915050565b600081905092915050565b600081905092915050565b600081905092915050565b600081905092915050565b600081905092915050565b600082825260208201905092915050565b60006155d4826156b7565b91506155df836156b7565b9250827fffffffffffffffffffffffffffffffffffffffffffffffffffffffffffffffff0382111561561457615613615844565b5b828201905092915050565b600061562a826156c1565b9150615635836156c1565b92508282101561564857615647615844565b5b828203905092915050565b600061565e82615697565b9050919050565b60008115159050919050565b600081905061567f82615ace565b919050565b600081905061569282615ae2565b919050565b600073ffffffffffffffffffffffffffffffffffffffff82169050919050565b6000819050919050565b600060ff82169050919050565b60006156d9826156e0565b9050919050565b60006156eb82615697565b9050919050565b60006156fd82615704565b9050919050565b600061570f82615697565b9050919050565b600061572182615728565b9050919050565b600061573382615697565b9050919050565b60006157458261574c565b9050919050565b600061575782615697565b9050919050565b600061576982615770565b9050919050565b600061577b82615697565b9050919050565b600061578d82615794565b9050919050565b600061579f82615697565b9050919050565b60006157b182615671565b9050919050565b60006157c382615684565b9050919050565b6157d3826158d1565b810181811067ffffffffffffffff821117156157f2576157f16158a2565b5b80604052505050565b6000615806826156b7565b91507fffffffffffffffffffffffffffffffffffffffffffffffffffffffffffffffff82141561583957615838615844565b5b600182019050919050565b7f4e487b7100000000000000000000000000000000000000000000000000000000600052601160045260246000fd5b7f4e487b7100000000000000000000000000000000000000000000000000000000600052602160045260246000fd5b7f4e487b7100000000000000000000000000000000000000000000000000000000600052604160045260246000fd5b6000601f19601f8301169050919050565b7f4167656e7420616c7265616479206d6f76656400000000000000000000000000600082015250565b7f52656372756974657220616c7265616479206d6164652061206d6f7665000000600082015250565b7f496e76616c69642067616d652073746174757320666f7220616374696f6e0000600082015250565b7f546f6f206d616e7920696e697469616c206d6f76657300000000000000000000600082015250565b7f4661696c656420746f207665726966792070726f6f6600000000000000000000600082015250565b7f496e76616c6964206e756d626572206f66206167656e74730000000000000000600082015250565b7f4167656e7420616c726561647920616374656400000000000000000000000000600082015250565b7f496e76616c6964206d6f76650000000000000000000000000000000000000000600082015250565b7f52656372756974657220686173206e6f74206d6f766564207965740000000000600082015250565b7f4e6f7420616e206167656e740000000000000000000000000000000000000000600082015250565b7f52656372756974657220616c7265616479206d6f766564000000000000000000600082015250565b7f4e6f742074686520726563727569746572000000000000000000000000000000600082015250565b60088110615adf57615ade615873565b5b50565b60068110615af357615af2615873565b5b50565b615aff81615653565b8114615b0a57600080fd5b50565b615b1681615665565b8114615b2157600080fd5b50565b60088110615b3157600080fd5b50565b615b3d816156b7565b8114615b4857600080fd5b50565b615b54816156c1565b8114615b5f57600080fd5b5056fea26469706673582212201713b89589fa1a3fe25c27367f080da5204236ae46b9534d30aabe4b2a52d06964736f6c63430008040033",
  "linkReferences": {},
  "deployedLinkReferences": {}
}