{
  "abi": [
    {
      "inputs": [
        {
          "internalType": "uint256[2]",
          "name": "a",
          "type": "uint256[2]"
        },
        {
          "internalType": "uint256[2][2]",
          "name": "b",
          "type": "uint256[2][2]"
        },
        {
          "internalType": "uint256[2]",
          "name": "c",
          "type": "uint256[2]"
        },
        {
          "internalType": "uint256[2]",
          "name": "input",
          "type": "uint256[2]"
        }
      ],
      "name": "verifyProof",
      "outputs": [
        {
          "internalType": "bool",
          "name": "r",
          "type": "bool"
        }
      ],
      "stateMutability": "view",
      "type": "function"
    }
  ],
  "bytecode": {
    "object": "0x608060405234801561001057600080fd5b5061118e806100206000396000f3fe608060405234801561001057600080fd5b506004361061002b5760003560e01c8063f5c9d69e14610030575b600080fd5b61004361003e366004611003565b610057565b604051901515815260200160405180910390f35b6000610061610e2c565b60408051808201825287518152602080890151818301529083528151608081018352875151818401908152885183015160608084019190915290825283518085018552898401805151825251840151818501528284015284830191909152825180840184528751815287830151818401528484015282516002808252918101845260009390928301908036833701905050905060005b600281101561014657848160028110610112576101126110a3565b6020020151828281518110610129576101296110a3565b60209081029190910101528061013e816110cf565b9150506100f7565b506101518183610172565b6000036101635760019250505061016a565b6000925050505b949350505050565b60007f30644e72e131a029b85045b68181585d2833e84879b9709143e1f593f00000018161019e610369565b9050806080015151855160016101b491906110e8565b146101fb5760405162461bcd60e51b81526020600482015260126024820152711d995c9a599a595c8b5898590b5a5b9c1d5d60721b60448201526064015b60405180910390fd5b604080518082019091526000808252602082018190525b86518110156102ec578387828151811061022e5761022e6110a3565b6020026020010151106102835760405162461bcd60e51b815260206004820152601f60248201527f76657269666965722d6774652d736e61726b2d7363616c61722d6669656c640060448201526064016101f2565b6102d8826102d3856080015184600161029c91906110e8565b815181106102ac576102ac6110a3565b60200260200101518a85815181106102c6576102c66110a3565b602002602001015161077b565b610811565b9150806102e4816110cf565b915050610212565b50610315818360800151600081518110610308576103086110a3565b6020026020010151610811565b905061034b61032786600001516108aa565b8660200151846000015185602001518587604001518b604001518960600151610949565b61035b5760019350505050610363565b600093505050505b92915050565b610371610e7d565b6040805180820182527f2d4d9aa7e302d9df41749d5507949d05dbea33fbb16c643b22f599a2be6df2e281527f14bedd503c37ceb061d8ec60209fe345ce89830a19230301f076caff004d19266020808301919091529083528151608080820184527f0967032fcbf776d1afc985f88877f182d38480a653f2decaa9794cbc3bf3060c8285019081527f0e187847ad4c798374d0d6732bf501847dd68bc0e071241e0213bc7fc13db7ab606080850191909152908352845180860186527f304cfbd1e08a704a99f5e847d93f8c3caafddec46b7a0d379da69a4d112346a781527f1739c1b1a457a8c7313123d24d2f9192f896b7c63eea05a9d57f06547ad0cec8818601528385015285840192909252835180820185527f198e9393920d483a7260bfb731fb5d25f1aa493335a9e71297e485b7aef312c28186019081527f1800deef121f1e76426a00665e5c4479674322d4f75edadd46debd5cd992f6ed828501528152845180860186527f090689d0585ff075ec9e99ad690c3395bc4b313370b38ef355acdadcd122975b81527f12c85ea5db8c6deb4aab71808dcb408fe3d1e7690c43d37b4ce6cc0166fa7daa818601528185015285850152835180820185527f047b23a58be4d0d48f5f7c0569c4270a709f46107d8f9e557d678bbba5ba6c2f8186019081527f0cd967c8e945737268240bbc7a0497b9e363a6744524c3afdbb4587f24c5ca9b828501528152845180860186527f286f6ce839860dc630451bc55aaa22c1bd9d09cf91b7e52e6fd2821dc55743e681527f2aacf8ecf75d0ca784502e636ba60139dcd33a01048208bcc351be4f0de8babb818601528185015291850191909152825160038082529181019093529082015b60408051808201909152600080825260208201528152602001906001900390816105ed57505060808201908152604080518082019091527f133d297f7f0b39b786cfc82a8869b5ab55ad810b38d676cc5aef0a8d8743c3fa81527f19955f6d26846d293f86033c715fe6e70ecd7eb768779faf41ebd3b314ef5bb8602082015290518051600090610680576106806110a3565b602002602001018190525060405180604001604052807f29d31f75d5fce346fe4cbae7a299461a35e96dd7affc3ad264bb3d77bd6a89b881526020017e238713c83a5ca884a8748e19922234cac7e01ec102d8efd365ab98208bb4dd81525081608001516001815181106106f6576106f66110a3565b602002602001018190525060405180604001604052807f218a041d10861ec8b2207f95c465c452242ae46b5fc2ff0ed37f8fbd142842a181526020017f1c7cff9047dd69338792c8c3b4889afec2a7f5112e077b0c7376cb8835a04020815250816080015160028151811061076d5761076d6110a3565b602002602001018190525090565b6040805180820190915260008082526020820152610797610ece565b835181526020808501519082015260408101839052600060608360808460076107d05a03fa905080806107c657fe5b50806108095760405162461bcd60e51b81526020600482015260126024820152711c185a5c9a5b99cb5b5d5b0b59985a5b195960721b60448201526064016101f2565b505092915050565b604080518082019091526000808252602082015261082d610eec565b8351815260208085015181830152835160408301528301516060808301919091526000908360c08460066107d05a03fa9050808061086757fe5b50806108095760405162461bcd60e51b81526020600482015260126024820152711c185a5c9a5b99cb5859190b59985a5b195960721b60448201526064016101f2565b604080518082019091526000808252602082015281517f30644e72e131a029b85045b68181585d97816a916871ca8d3c208c16d87cfd47901580156108f157506020830151155b156109115750506040805180820190915260008082526020820152919050565b6040518060400160405280846000015181526020018285602001516109369190611100565b6109409084611122565b90529392505050565b60408051600480825260a08201909252600091829190816020015b604080518082019091526000808252602082015281526020019060019003908161096457505060408051600480825260a0820190925291925060009190602082015b6109ae610f0a565b8152602001906001900390816109a65790505090508a826000815181106109d7576109d76110a3565b602002602001018190525088826001815181106109f6576109f66110a3565b60200260200101819052508682600281518110610a1557610a156110a3565b60200260200101819052508482600381518110610a3457610a346110a3565b60200260200101819052508981600081518110610a5357610a536110a3565b60200260200101819052508781600181518110610a7257610a726110a3565b60200260200101819052508581600281518110610a9157610a916110a3565b60200260200101819052508381600381518110610ab057610ab06110a3565b6020026020010181905250610ac58282610ad4565b9b9a5050505050505050505050565b60008151835114610b205760405162461bcd60e51b81526020600482015260166024820152751c185a5c9a5b99cb5b195b99dd1a1ccb59985a5b195960521b60448201526064016101f2565b82516000610b2f826006611139565b905060008167ffffffffffffffff811115610b4c57610b4c610f66565b604051908082528060200260200182016040528015610b75578160200160208202803683370190505b50905060005b83811015610db057868181518110610b9557610b956110a3565b60200260200101516000015182826006610baf9190611139565b610bba9060006110e8565b81518110610bca57610bca6110a3565b602002602001018181525050868181518110610be857610be86110a3565b60200260200101516020015182826006610c029190611139565b610c0d9060016110e8565b81518110610c1d57610c1d6110a3565b602002602001018181525050858181518110610c3b57610c3b6110a3565b6020908102919091010151515182610c54836006611139565b610c5f9060026110e8565b81518110610c6f57610c6f6110a3565b602002602001018181525050858181518110610c8d57610c8d6110a3565b60209081029190910181015151015182610ca8836006611139565b610cb39060036110e8565b81518110610cc357610cc36110a3565b602002602001018181525050858181518110610ce157610ce16110a3565b602002602001015160200151600060028110610cff57610cff6110a3565b602002015182610d10836006611139565b610d1b9060046110e8565b81518110610d2b57610d2b6110a3565b602002602001018181525050858181518110610d4957610d496110a3565b602002602001015160200151600160028110610d6757610d676110a3565b602002015182610d78836006611139565b610d839060056110e8565b81518110610d9357610d936110a3565b602090810291909101015280610da8816110cf565b915050610b7b565b50610db9610f2a565b6000602082602086026020860160086107d05a03fa90508080610dd857fe5b5080610e1e5760405162461bcd60e51b81526020600482015260156024820152741c185a5c9a5b99cb5bdc18dbd9194b59985a5b1959605a1b60448201526064016101f2565b505115159695505050505050565b6040805160a081019091526000606082018181526080830191909152815260208101610e56610f0a565b8152602001610e78604051806040016040528060008152602001600081525090565b905290565b6040805160e08101909152600060a0820181815260c0830191909152815260208101610ea7610f0a565b8152602001610eb4610f0a565b8152602001610ec1610f0a565b8152602001606081525090565b60405180606001604052806003906020820280368337509192915050565b60405180608001604052806004906020820280368337509192915050565b6040518060400160405280610f1d610f48565b8152602001610e78610f48565b60405180602001604052806001906020820280368337509192915050565b60405180604001604052806002906020820280368337509192915050565b634e487b7160e01b600052604160045260246000fd5b6040805190810167ffffffffffffffff81118282101715610fad57634e487b7160e01b600052604160045260246000fd5b60405290565b600082601f830112610fc457600080fd5b610fcc610f7c565b806040840185811115610fde57600080fd5b845b81811015610ff8578035845260209384019301610fe0565b509095945050505050565b600080600080610140858703121561101a57600080fd5b6110248686610fb3565b9350604086605f87011261103757600080fd5b61103f610f7c565b8060c088018981111561105157600080fd5b8389015b81811015611076576110678b82610fb3565b84526020909301928401611055565b508196506110848a82610fb3565b955050505050611098866101008701610fb3565b905092959194509250565b634e487b7160e01b600052603260045260246000fd5b634e487b7160e01b600052601160045260246000fd5b6000600182016110e1576110e16110b9565b5060010190565b600082198211156110fb576110fb6110b9565b500190565b60008261111d57634e487b7160e01b600052601260045260246000fd5b500690565b600082821015611134576111346110b9565b500390565b6000816000190483118215151615611153576111536110b9565b50029056fea2646970667358221220010ff02e764df9cdcf9c85d7b59dd08f029220972e366fa0935f755cddfb820264736f6c634300080e0033",
    "linkReferences": {}
  },
  "methodIdentifiers": {
    "verifyProof(uint256[2],uint256[2][2],uint256[2],uint256[2])": "f5c9d69e"
  },
  "id": 5
}